:100000000C94E3030C9414040C9414040C94140442
:100010000C9414040C9414040C9414040C94140400
:100020000C9414040C9414040C9414040C941404F0
:100030000C9414040C94D9150C9414040C9414040A
:100040000C9414040C948D180C9414040C94140443
:100050000C9414040C9414040C9414040C94991629
:100060000C9414040C9463160C9439160C94140418
:100070000C9414040C9414040C9414040C941404A0
:100080000C945F180C9414040C9414040C94140431
:100090000C9414040C9414040C9414040C94E3169F
:1000A0000C9414040C9414040C9431180C9414043F
:1000B0000C9414040C9414040C9414040C9403185D
:1000C0000C9414040C9414040C9414040C94140450
:1000D0000C9414040C9414040C9414040C94140440
:1000E0000C9414040C94AF0E0C94760F0C949A118B
:1000F0000C94660F0C94F40E0C9463060C94820F0F
:100100000C942D0F0C9407050C9474060C948E0F10
:100110000C94E90C0C941A0E0C9499060C94830917
:100120000C9467060C945F060C94EA050C94840A00
:100130000C94BB0D0C948C060C9486060C949006C3
:100140000C9459060C94CB060C9457050C9400198A
:100150000C946E060C942A110C9419110C94950FA2
:100160000C9478060C949D050C9450070C947E0614
:100170000C94920E0C94AF0A0C949A060C9465059C
:100180000C9443050C949B110C9447200C949E06F0
:100190000C9494060C9482060C9434050C946B0613
:1001A00000000000003E5B4F5B3E3E6B4F6B3E1C11
:1001B0003E7C3E1C183C7E3C181C577D571C1C5E28
:1001C0007F5E1C00183C1800FFE7C3E7FF001824FF
:1001D0001800FFE7DBE7FF30483A060E26297929A9
:1001E00026407F050507407F05253F5A3CE73C5ADE
:1001F0007F3E1C1C08081C1C3E7F14227F22145FBB
:100200005F005F5F06097F017F006689956A606015
:1002100060606094A2FFA29408047E040810207E0F
:10022000201008082A1C08081C2A08081E10101094
:10023000100C1E0C1E0C30383E3830060E3E0E06DA
:10024000000000000000005F00000007000700142D
:100250007F147F14242A7F2A1223130864623649EC
:100260005620500008070300001C224100004122D4
:100270001C002A1C7F1C2A08083E080800807030D9
:100280000008080808080000606000201008040248
:100290003E5149453E00427F40007249494946214E
:1002A00041494D331814127F1027454545393C4AC2
:1002B00049493141211109073649494936464949D9
:1002C000291E000014000000403400000008142221
:1002D000411414141414004122140802015909068F
:1002E0003E415D594E7C1211127C7F494949363E90
:1002F000414141227F4141413E7F494949417F0976
:100300000909013E414151737F0808087F00417F80
:1003100041002040413F017F081422417F4040407E
:10032000407F021C027F7F0408107F3E4141413E16
:100330007F090909063E4151215E7F091929462698
:100340004949493203017F01033F4040403F1F209C
:1003500040201F3F4038403F631408146303047873
:1003600004036159494D43007F4141410204081093
:1003700020004141417F04020102044040404040CE
:10038000000307080020545478407F28444438383C
:1003900044444428384444287F38545454180008AE
:1003A0007E090218A4A49C787F0804047800447D88
:1003B00040002040403D007F1028440000417F4025
:1003C000007C047804787C08040478384444443879
:1003D000FC1824241818242418FC7C080404084859
:1003E0005454542404043F44243C4040207C1C20AA
:1003F00040201C3C4030403C44281028444C909005
:10040000907C4464544C440008364100000077005E
:1004100000004136080002010204023C2623263C6B
:100420001EA1A161123A4040207A385454555921F6
:1004300055557941225454784221555478402054DE
:100440005579400C1E52721239555555593954542C
:10045000545939555454580000457C410002457D9B
:10046000420001457C407D1211127DF0282528F0C4
:100470007C545545002054547C547C0A097F4932F1
:10048000494949323A4444443A324A4848303A4168
:1004900041217A3A42402078009DA0A07D3D424211
:1004A000423D3D4040403D3C24FF2424487E49439A
:1004B000662B2FFC2F2BFF0929F620C0887E09030D
:1004C00020545479410000447D413048484A323834
:1004D0004040227A007A0A0A727D0D19317D262960
:1004E000292F28262929292630484D402038080858
:1004F000080808080808382F10C8ACBA2F1028348C
:10050000FA00007B000008142A142222142A14087E
:100510005500550055AA55AA55AAFF55FF55FF008D
:100520000000FF00101010FF00141414FF00101042
:10053000FF00FF1010F010F0141414FC001414F756
:1005400000FF0000FF00FF1414F404FC1414171043
:100550001F10101F101F1414141F00101010F00093
:100560000000001F101010101F10101010F01000CD
:100570000000FF101010101010101010FF100000DD
:1005800000FF140000FF00FF00001F10170000FC18
:1005900004F414141710171414F404F40000FF00EA
:1005A000F714141414141414F700F7141414171473
:1005B00010101F101F141414F4141010F010F00079
:1005C000001F101F0000001F14000000FC1400009A
:1005D000F010F01010FF10FF141414FF141010107E
:1005E0001F00000000F010FFFFFFFFFFF0F0F0F031
:1005F000F0FFFFFF0000000000FFFF0F0F0F0F0FC5
:100600003844443844FC4A4A4A347E020206060210
:100610007E027E0263554941633844443C04407E77
:10062000201E2006027E020299A5E7A5991C2A49F0
:100630002A1C4C7201724C304A4D4D30304878487B
:1006400030BC625A463D3E494949007E0101017E67
:100650002A2A2A2A2A44445F444440514A444040BA
:10066000444A51400000FF0103E080FF00000808F9
:100670006B6B083612362436060F090F0600001879
:10068000180000001010003040FF0101001F0101A0
:100690001E00191D1712003C3C3C3C0000000000ED
:1006A00000000A0B02090C0D0E08070304010000EC
:1006B000000000000000000000000000000000003A
:1006C00000000000000000000000000012111000F7
:1006D000000000000000000000000000000000001A
:1006E00000000000000000002100240027002A0074
:1006F0002D003000330001010000040107010A0150
:1007000002000020002300260029002C002F0032C8
:100710000000010000030106010901010210202070
:100720000808102040102040800201020108040245
:1007300001010204081020408080402010080402BB
:100740000180040201804020100804020108040214
:10075000010102040810204080010204081020401A
:100760008000002200250028002B002E00310034DC
:100770000002010000050108010B01050505050740
:100780000508080808020202020A0A08080404040C
:100790000401010101010101010303030303030338
:1007A00003040707070C0C0C0C0C0C0C0C020202C7
:1007B0000206060606060606060B0B0B0B0B0B0BBA
:1007C0000B000019472011241FBECFEFD1E2DEBF7E
:1007D000CDBF00E00CBF14E0A0E0B2E0EEECFAE424
:1007E00000E00BBF02C007900D92AC3BB107D9F7F8
:1007F00027E0ACEBB4E001C01D92A334B207E1F7EF
:1008000013E0C2EED3E000E006C021970109802F7B
:10081000FE010E941523C13ED10780E00807A9F719
:100820000E94721A0C9455250C940000FC01208142
:100830002EBD0DB407FEFDCF2EB5FC01208308951B
:1008400096E0899FD0011124A053B94F90967C93D4
:100850006E935F9791E091969C939197E0913D07FD
:10086000F0913E0790913C07992339F0309751F071
:10087000811108C08091EC061994309719F05C96AC
:100880008C91FACF08958230910538F0880F991F26
:10089000880F991F05970197F1F708959F92AF92DE
:1008A000BF92CF92DF92EF92FF920F931F93CF935D
:1008B000DF93EC016B018885998511E0892B09F0A4
:1008C00010E8F601A0808A2D812399249394811148
:1008D000912C2C813D814E815F8160E271EA87E03D
:1008E00090E00E94A521022FB12CE22EF12C0023D2
:1008F00019F0C7010E9443048A85877F09F04FC021
:100900008D858F3F89F09A2D912381E009F480E055
:10091000891551F0EF85F8898F899923D1F190815C
:10092000892B808399249394E989FA898081998D10
:10093000892B8083002319F0C7010E9443048E8510
:100940008F3F39F0EB89FC898081988D892309F0EC
:10095000B12AE989FA899081898D809589238083DC
:100960008E858F3F11F0F601B08288859985892B9D
:1009700009F044C0110F1111BACFDF91CF911F912F
:100980000F91FF90EF90DF90CF90BF90AF909F902E
:1009900008959081809589238083912CC5CFE98922
:1009A000FA898081998D892B8083002319F0C701F2
:1009B0000E9443048D858F3F49F0EF85F8898F8928
:1009C0009A2D9123B9F09081892B8083E989FA8946
:1009D0009081898D8095892380838E858F3F09F44E
:1009E000BFCFEB89FC898081988D892309F4B8CF2A
:1009F000B12AB6CF908180958923E7CF1695BBCFDA
:100A0000DC01ED91FC910190F081E02D1994AF9201
:100A1000BF92CF92DF92EF92FF920F931F93CF93EB
:100A2000DF936C017B018B01040F151FEB015E014D
:100A3000AE18BF08C017D10759F06991D601ED91E2
:100A4000FC910190F081E02DC6011995892B79F771
:100A5000C501DF91CF911F910F91FF90EF90DF9033
:100A6000CF90BF90AF900895FC01538D448D252FFA
:100A700030E0842F90E0821B930B541710F0CF9638
:100A8000089501970895FC01918D828D981761F06A
:100A9000A28DAE0FBF2FB11D5D968C91928D9F5F81
:100AA0009F73928F90E008958FEF9FEF0895FC0160
:100AB000918D828D981731F0828DE80FF11D858D13
:100AC00090E008958FEF9FEF0895FC01918D228DA6
:100AD000892F90E0805C9F4F821B91098F7399272B
:100AE000089589E695E00E94650521E0892B09F4C7
:100AF00020E0822F0895FC01A48DA80FB92FB11D0D
:100B0000A35ABF4F2C91848D90E001968F73992743
:100B1000848FA689B7892C93A089B1898C91837021
:100B200080648C93938D848D981306C00288F3891A
:100B3000E02D80818F7D80830895EF92FF920F9347
:100B40001F93CF93DF93EC0181E0888F9B8D8C8D79
:100B500098131AC0E889F989808185FF15C09FB76D
:100B6000F894EE89FF896083E889F9898081837030
:100B7000806480839FBF81E090E0DF91CF911F91DF
:100B80000F91FF90EF900895F62E0B8D10E00F5F00
:100B90001F4F0F731127E02E8C8D8E110CC00FB6D6
:100BA00007FCFACFE889F989808185FFF5CFCE016E
:100BB0000E947B05F1CFEB8DEC0FFD2FF11DE35A69
:100BC000FF4FF0829FB7F8940B8FEA89FB898081F1
:100BD0008062CFCFCF93DF93EC01888D8823B9F06B
:100BE000AA89BB89E889F9898C9185FD03C0808138
:100BF00086FD0DC00FB607FCF7CF8C9185FFF2CFB5
:100C0000808185FFEDCFCE010E947B05E9CFDF918A
:100C1000CF91089580E090E0892B29F00E94710522
:100C200081110E94000080E090E0892B49F080E073
:100C300090E0892B29F00E94000081110E940000A1
:100C400080E090E0892B49F080E090E0892B29F04A
:100C50000E94000081110E94000080E090E0892B3A
:100C600049F080E090E0892B29F00E94000081117A
:100C70000C94000008958150823108F05AC0E82F8A
:100C8000F0E08827E95BF94F8F4F0C941523670636
:100C90006B0659065F06630699066E0674067806AB
:100CA0007E06820686068C069006990694069A06AB
:100CB0009E06809180008F778093800008958091B8
:100CC00080008F7DF9CF80918000877FF5CF84B53C
:100CD0008F7784BD089584B58F7DFBCF8091B00060
:100CE0008F778093B00008958091B0008F7DF9CF09
:100CF000809190008F77809390000895809190006C
:100D00008F7DF9CF80919000877FF5CF8091A000F3
:100D10008F778093A00008958091A0008F7DF9CFF8
:100D20008091A000877FF5CF809120018F778093FD
:100D300020010895809120018F7DF9CF80912001BD
:100D4000877FF5CFCF93DF93282F30E0F901E0566E
:100D5000F94F8491F901E55EF84FD491F901E55816
:100D6000F84FC491CC23A1F081110E943B06EC2FD7
:100D7000F0E0EE0FFF1FEF5FF84FA591B491EC91FB
:100D8000ED2381E090E009F480E0DF91CF910895B8
:100D900080E090E0FACF862F0C94A2061F93CF93A9
:100DA000DF93282F30E0F901E056F94F8491F901E3
:100DB000E55EF84FD491F901E558F84FC491CC2382
:100DC000A9F0162F81110E943B06EC2FF0E0EE0FE8
:100DD000FF1FEF59F84FA591B4918FB7F894EC919C
:100DE000111108C0D095DE23DC938FBFDF91CF9126
:100DF0001F910895DE2BF8CFAF92BF92CF92DF9272
:100E0000EF92FF920F931F93CF93DF931F92CDB773
:100E1000DEB78C015B016A01DC018D919C91119719
:100E2000892B39F01296ED91FC91908181819CBDC6
:100E30008DBDF80183858F3F19F060E00E94CE06DA
:100E40007501CA0CDB1CCE14DF04A9F0D7018D910B
:100E50007D018983F80180819181892B29F0CE0160
:100E600001960E941604EFCFBE016F5F7F4FC8014D
:100E70000E944E04E8CFD8011B968C918F3F19F049
:100E800061E00E94CE0681E00F90DF91CF911F912B
:100E90000F91FF90EF90DF90CF90BF90AF900895AB
:100EA000862F642F0C94CE069091000289130DC0FA
:100EB000E0E0F7E0E4919FEF90930002E230E1F090
:100EC00038F4EE2381F0E13089F060E00C94CE0636
:100ED000E43049F110F1E530C1F7909173009D7F46
:100EE00090937300F2CF10926E00EFCF90916F004D
:100EF0009D7F90936F00E9CF909170009D7F9093BC
:100F0000700091E09093B0009091B100987F946050
:100F10009093B1001092B300D8CF909171009D7F53
:100F200090937100D2CF909172009D7F9093720048
:100F3000CCCFCF93DF9390E0FC01E55EF84F249196
:100F40008558984FFC0184918823C9F090E0880F60
:100F5000991FFC01EA51F94FA591B491FC01EF5999
:100F6000F84FC591D49161110DC09FB7F8948C9141
:100F7000209582238C938881282328839FBFDF912B
:100F8000CF910895623051F49FB7F8943C91822F2D
:100F9000809583238C93E8812E2BEFCF8FB7F89425
:100FA000EC912E2B2C938FBFEACFCF938091000230
:100FB0008D3021F08F3F59F1CF910895E0E0F7E0B7
:100FC000C491C7FDF9CF61E08DE00E949907CC2361
:100FD00009F4F0C0C23009F004C18091B100887FEB
:100FE00083608093B1008CE78093B3008FEF9FEF15
:100FF000DC0180935D0590935E05A0935F05B0933F
:10100000600580917000826080937000D5CF8DE084
:1010100080930002E0E0F7E0C4918C2FCF3F61F2B3
:10102000C23009F468C060F4CC2379F1C13009F40E
:1010300044C087FDC1CF61E08DE00E949907CACF0F
:10104000C43009F499C008F478C0C53091F7109203
:10105000200110922101809121018860809321015B
:1010600080912101816080932101E8E8F7E0E4911B
:10107000F0E0EE0FFF1FEF59F84F85919491E8E2F1
:10108000F7E0E491E09349059ECF14BC15BC84B50C
:10109000826084BD85B5816085BDE8E8F7E0E491B4
:1010A000F0E0EE0FFF1FEF59F84F85919491E8E2C1
:1010B000F7E0E491E093500586CF10928000109203
:1010C00081008091810088608093810080918100FF
:1010D000816080938100E8E8F7E0E491F0E0EE0FB2
:1010E000FF1FEF59F84F85919491E8E2F7E0E49102
:1010F000E0934F0568CF1092B0001092B10080913C
:10110000B00082608093B0008091B10081608093D4
:10111000B100E8E8F7E0E491F0E0EE0FFF1FEF59CF
:10112000F84F8591949190934E0580934D05E8E298
:10113000F7E0E491E0934C0546CF109290001092B6
:10114000910080919100886080939100809191003E
:10115000816080939100E8E8F7E0E491F0E0EE0F21
:10116000FF1FEF59F84F85919491E8E2F7E0E49181
:10117000E0934B05C3E027CF1092A0001092A1008E
:101180008091A10088608093A1008091A10081607E
:101190008093A100E8E8F7E0E491F0E0EE0FFF1F94
:1011A000EF59F84F85919491E8E2F7E0E491E093EC
:1011B0004A0509CF85B5887F836085BD8DE387BDEE
:1011C0008FEF9FEFDC018093650590936605A093F8
:1011D0006705B093680580916E00826080936E0011
:1011E000EBCEC130E9F480918100887F81608093EB
:1011F00081008FE99FE090938900809388008FEFB2
:101200009FEFDC018093610590936205A0936305D5
:10121000B093640580916F00826080936F00CCCEA4
:10122000C330E9F480919100887F816080939100C0
:101230008FE99FE090939900809398008FEF9FEF44
:10124000DC018093590590935A05A0935B05B093F8
:101250005C0580917100826080937100ADCEC430D6
:10126000E9F48091A100887F81608093A1008FE9DB
:101270009FE09093A9008093A8008FEF9FEFDC017F
:101280008093550590935605A0935705B093580544
:10129000809172008260809372008ECEC530E9F436
:1012A00080912101887F8160809321018FE99FE0F7
:1012B00090932901809328018FEF9FEFDC018093A9
:1012C000510590935205A0935305B0935405809116
:1012D00073008260809373006FCEC23091F034F45B
:1012E000CC2369F0C13009F067CE83CFC43009F454
:1012F000BECF0CF49DCFC53009F05ECED7CF8FE9BD
:101300005ECF8FE971CE862F642F0C949907909150
:101310007B00977F90937B008653806480937C0052
:1013200080917A00806480937A0080917A0086FDB3
:10133000FCCF809178009091790008953FB7F894A0
:101340008091360590913705A0913805B091390507
:1013500026B5A89B05C02F3F19F00196A11DB11D10
:101360003FBFBA2FA92F982F8827BC01CD01620F4C
:10137000711D811D911D42E0660F771F881F991F07
:101380004A95D1F708958F929F92AF92BF92CF92D4
:10139000DF92EF92FF924B015C010E949E096B016C
:1013A0007C010E949E096C197D098E099F09683E87
:1013B000734081059105A8F321E0821A9108A108E4
:1013C000B10888EEC80E83E0D81EE11CF11C811420
:1013D0009104A104B10429F7FF90EF90DF90CF9022
:1013E000BF90AF909F908F9008952FB7F894609121
:1013F00032057091330580913405909135052FBFEA
:1014000008950F931F93CF93DF93C82FD62F86E0B5
:10141000C89FF0011124E053F94F11A2878D90A1CC
:1014200081309105F1F058F082309105F1F1039788
:1014300009F440C0DF91CF911F910F910895662369
:10144000C9F361E070E08C2F0E9420040E94F5092E
:10145000609328077093290780932A0790932B079E
:10146000E9CF0E94F50900912807109129072091E2
:101470002A0730912B07AB01BC01401B510B620BBB
:10148000730B80913A0790913B07B0E0A0E084177E
:101490009507A607B70748F462E070E08C2FDF914C
:1014A000CF911F910F910C94200463E070E0D11153
:1014B000C1CFF4CF70E060E0F1CF2091E704260FB8
:1014C0003327331F21323105ECF420910B05FC0149
:1014D00090E080E0243069F082E00895A091E70474
:1014E0002191AC0149535B4FA40FB52FB11D2C9333
:1014F0000196861798F38091E704680F6093E704DC
:1015000080E0089581E0089508958FEF9FEF08959A
:101510008FEF9FEF08958091C00490E091958195A1
:1015200091090895CF93DF93CB01EA01642F0E94C4
:101530005D0ACE01DF91CF910895CF93DF931F9283
:10154000CDB7DEB7698361E0CE0101960E945D0AE6
:1015500081E090E00F90DF91CF9108950895FC0114
:101560006370668B8481958126813781613039F083
:10157000633029F0918780873387228708953187E8
:1015800020879387828708952F923F924F925F9290
:101590006F927F928F929F92AF92BF92CF92DF9283
:1015A000EF92FF920F931F93CF93DF93CDB7DEB7E8
:1015B0006A970FB6F894DEBF0FBECDBF9A8F898FA2
:1015C0007A8369834A01D22E18870F833701BC2C96
:1015D000DC0159962D913C915A972115310509F05E
:1015E00015C118968D919C911997681779070CF081
:1015F000D7C11A968D919C91481759070CF0D0C10C
:101600004C2C512CB6E0CB9E600D711D11247C87B3
:101610006B87161617060CF0C3C1EA2DF0E0FA87A7
:10162000E98793E0EE0FFF1F9A95E1F7F88BEF87BC
:10163000CF01840F951F181619060CF0B1C1A98DA2
:10164000BA8D58968C91811104C0BFEABD1508F47B
:10165000D394A98DBA8DED91FC9111970284F385F5
:10166000E02DCD011995B5E0DB9EC0011124E98183
:10167000FA81FC83EB83312C212C9C0120563E4FB8
:10168000388F2F8B4A2D50E05E8B4D8BEF89F88D74
:10169000E20DF31D44919E828D82D12CC12C698173
:1016A0007A81620D731D7A8B698B842F90E09C8BFD
:1016B0008B8BE98DFA8DA081B18140FF82C0F1E072
:1016C000BF126FC0AF126DC01C96ED91FC912F81BF
:1016D0003885A4014C0D5D1D69897A89898D9A8DA3
:1016E0001995EB89FC89F595E7954E2F5FEFC51AA3
:1016F000D50A6D817E818D899E89680F791F7E83D1
:101700006D8398E0C916D10481F6AFEF2A1A3A0A20
:10171000EB81FC81E40DF51DFC83EB83F5E02F16D6
:10172000310409F0B3CF2F81388526153705B9F07C
:10173000A98DBA8DED91FC91B1E0BB1257C0AB12EF
:1017400055C069817A816B5F7F4F0088F189E02DF8
:10175000830128E030E0A401898D9A8D1995A98D27
:10176000BA8DED91FC9111970688F789E02DCD0196
:101770006A960FB6F894DEBF0FBECDBFDF91CF9152
:101780001F910F91FF90EF90DF90CF90BF90AF909F
:101790009F908F907F906F905F904F903F902F9091
:1017A00019941E96ED91FC91EF80F88409851A85B5
:1017B00092014D815E816B817C81898D9A8D199515
:1017C00090CF2F8138852615370509F48ACF31E06F
:1017D000B31207C0A31205C01C96ED91FC919301B2
:1017E00078CF1E96ED91FC917301E0CF6B857C85DF
:1017F000641975090684F785E02D73010F85188932
:101800009201A401898D9A8D1995A9CFF901349679
:101810009491329745915491D91AB7E0DB9E400DCF
:10182000511D1124F901259134913C8B2B8BFA0128
:1018300025903490FA013296749031963491398B18
:10184000329664903196449041E04C1518F04A1558
:1018500008F07FC0662D062C000C770B7C836B8311
:10186000842D042C000C990B9E838D83A98DBA8D39
:10187000ED91FC9111970284F385E02DCD0119952E
:10188000512CD12CC12CEA2DF0E0FA87E9872B2DC1
:1018900030E03C872B87A401440D511D47FC5A952D
:1018A000588F4F8B69817A81660D711D67FC7A951F
:1018B0007E876D877989C71608F051CF2C2D30E0CF
:1018C0004D815E81420F531FA985BA854A9FC00191
:1018D0004B9F900D5A9F900D1124FC01E80DF91DAE
:1018E000F88BEF87852D612C4F89588D420F531F40
:1018F0005E8B4D8B671408F050C044244394480E0F
:10190000877041F4C1010196EB89FC89E20DF31D5A
:10191000D4901C01D7FE19C0A98DBA8DED91FC9110
:10192000662D70E0B1E0BB1219C0AB1217C02D8557
:101930003E85620F731F0484F585E02D2F81388565
:101940004D895E89898D9A8D1995DD0C6394842D5E
:10195000D1CF1E821D821C821B8288CF4B815C816D
:10196000640F751FAB85BC856A9FC0016B9F900D8E
:101970007A9F900D112469817A81680F791F0684FE
:10198000F785E02DEF80F88409851A859D014F8544
:101990005889898D9A8D1995D8CF570CC3948ACFC1
:1019A0006A960FB6F894DEBF0FBECDBFDF91CF9120
:1019B0001F910F91FF90EF90DF90CF90BF90AF906D
:1019C0009F908F907F906F905F904F903F902F905F
:1019D00008958F929F92AF92CF92EF92FF920F93C2
:1019E0001F93CF93DF93EC01262F898D9A8D00975B
:1019F00009F051C06A30D1F41D861C868D8948E0FB
:101A0000849F900111248E859F85820F931F9F874D
:101A10008E8781E090E0DF91CF911F910F91FF9031
:101A2000EF90CF90AF909F908F9008956D3089F395
:101A3000CC88AD888F898823C1F08C859D8536E060
:101A4000C39E800D911D112448855985481759075B
:101A500064F44E855F851D861C8638E0A39EC00118
:101A60001124840F951F9F878E87EA88FB88088939
:101A700019894E855F856C857D85CE010E94C40ADB
:101A80002C898C859D8546E0249F800D911D112415
:101A90009D878C87BECF6A3069F41D861C86FC0149
:101AA0003896E4912D898E859F85E29F800D911D4A
:101AB0001124ADCF6D3009F4ACCFFC0134963491D4
:101AC000631708F4A6CF3296E491E61708F4A1CF85
:101AD000FC01329685909490462F431B342F47E0AB
:101AE000349F800C911C1124F4013296349131966C
:101AF000E4913323A9F1EE2399F1CC88F4013596D2
:101B0000E491AD884F89442301F10E2E000CFF0BA8
:101B1000E30FF11DCE9EA001CF9E500D11246C85C8
:101B20007D85460F571F68857985641775076CF4A6
:101B30004E855F851D861C86FC013896E491AE9E1D
:101B4000400D511D11245F874E87EA88FB88088964
:101B500019894E855F856C857D85CE010E94C40AFA
:101B6000F4013496E4912C898C859D85E29F800D4B
:101B7000911D11248DCF6F927F928F929F92AF9281
:101B8000BF92CF92DF92EF92FF920F931F93CF936A
:101B9000DF93EC016B015A0139014801E881F981B9
:101BA0000284F385E02D1995E881F9810288F38993
:101BB000E02D87019301A501B601CE011995A5017C
:101BC000480D591D41505109E881F9810288F38976
:101BD000E02D9301B601CE011995E881F9810088C5
:101BE000F189E02D9401A501B601CE011995C60C2D
:101BF000D71CB60161507109E881F9810088F1892B
:101C0000E02D9401A501CE011995E881F98106889E
:101C1000F789E02DCE01DF91CF911F910F91FF90B9
:101C2000EF90DF90CF90BF90AF909F908F907F907C
:101C30006F9019946F927F928F929F92AF92BF9202
:101C4000CF92DF92EF92FF920F931F93CF93DF9388
:101C50005C01EB016A01490138018701DC01ED916A
:101C6000FC916217730719F5641675062CF0962D12
:101C7000872D3A01C92ED82E9601261937092F5FD4
:101C80003F4F048CF58DE02DA301BE01C5011995D0
:101C9000DF91CF911F910F91FF90EF90DF90CF9048
:101CA000BF90AF909F908F907F906F900895461552
:101CB000570591F42617370724F0892D4B01C22FC1
:101CC000D82F9E01281939092F5F3F4F068CF78DB9
:101CD000E02DA601B401DACF0284F385E02D199539
:101CE000D501ED91FC910488F589E02D83019401E3
:101CF000A601BE01C5011995D501ED91FC9106889B
:101D0000F789E02DC501DF91CF911F910F91FF90D1
:101D1000EF90DF90CF90BF90AF909F908F907F908B
:101D20006F901994EF92FF920F931F93DC011A9614
:101D30000D911C911B9718962D913C911997ED913F
:101D4000FC9100A0F1A1E02D7B0150E040E070E0AB
:101D500060E019951F910F91FF90EF9008954F92B9
:101D60005F926F927F928F929F92AF92BF92CF922B
:101D7000DF92EF92FF920F931F93CF93DF936C014B
:101D80002B015A0139014801DC01ED91FC910284DB
:101D9000F385E02D1995E201640C751CD601ED91D7
:101DA000FC91C615D7055CF40088F189E02D870108
:101DB0009401A501BE01C60119952196EFCF0688B1
:101DC000F789E02DC601DF91CF911F910F91FF9010
:101DD000EF90DF90CF90BF90AF909F908F907F90CB
:101DE0006F905F904F9019948F929F92AF92BF9295
:101DF000CF92DF92EF92FF920F931F93CF93DF93D7
:101E0000EC015B014A016901E881F9810284F385F3
:101E1000E02D199595012C0D3D1D21503109E881CA
:101E2000F9810488F589E02D78018401A401B501C8
:101E3000CE011995E881F9810688F789E02DCE0158
:101E4000DF91CF911F910F91FF90EF90DF90CF9096
:101E5000BF90AF909F908F9019948F929F92AF9266
:101E6000BF92CF92DF92EF92FF920F931F93CF9387
:101E7000DF93EC015B014A0169017801E881F98196
:101E80000284F385E02D1995C80CD91C86010150F8
:101E90001109E881F9810488F589E02D9501A401F3
:101EA000B501CE011995E881F9810688F789E02D01
:101EB000CE01DF91CF911F910F91FF90EF90DF90B6
:101EC000CF90BF90AF909F908F901994EF92FF9218
:101ED0000F931F93DC01ED91FC9100A0F1A1E02D87
:101EE00019951F910F91FF90EF9008950F931F93F5
:101EF000DC01ED91FC91068CF78DE02D19951F9179
:101F00000F9108950F931F93DC01ED91FC91048CC8
:101F1000F58DE02D19951F910F910895DC01ED913C
:101F2000FC910084F185E02D19942F923F924F92FD
:101F30005F926F927F928F929F92AF92BF92CF9259
:101F4000DF92EF92FF920F931F93CF93DF9300D016
:101F500000D0CDB7DEB73C016A013E832D83FC8201
:101F6000EB825801A41AB50AB7FE03C0B194A1943C
:101F7000B1088D809E80861A970A97FE03C09194BF
:101F8000819491088A149B045CF0902F812F0D811D
:101F90001E819D838E839C2D8D2D6B01692F782F43
:101FA0000C151D055CF09D818E817E836D83692FEC
:101FB000782F902F812F8601C92ED82E1601201A36
:101FC000310A2B012D813E81421A530A57FE03C06C
:101FD000519441945108710137FE03C03FEFE31A59
:101FE000F30AF594E7948D819E81861797075CF537
:101FF000A1E0B0E0BA83A983C016D1064CF1D301A9
:10200000ED91FC910484F585E02D2B813C81A801A4
:102010006D817E818A149B041CF04D815E81B80124
:10202000C3011995E418F508F7FE0AC02D813E8119
:1020300089819A81280F391F3E832D83E20CF31C7E
:102040000F5F1F4FD9CF2FEF3FEF3A832983D4CFB4
:1020500026960FB6F894DEBF0FBECDBFDF91CF91AD
:102060001F910F91FF90EF90DF90CF90BF90AF90B6
:102070009F908F907F906F905F904F903F902F90A8
:1020800008950F931F93CF93DF931F92CDB7DEB7C1
:102090008C01698360E0FC01868D0E94CE0641E0E0
:1020A00050E0BE016F5F7F4FF801838D948D0E94D9
:1020B000FC060F90DF91CF911F910F910895CF9360
:1020C000C82F87FDCFE7C093BC0661E28DE996E09B
:1020D0000E9441106C2F60688DE996E00E944110CB
:1020E00060E28DE996E0CF910C944110CF938091FE
:1020F000BA0687FD13C061E00E94990760E08091F5
:10210000BA060E94CE0661E070E080E090E00E9496
:10211000C30961E08091BA060E94CE06C091BD0657
:10212000C83008F0C7E0C093BD0661E28DE996E0D3
:102130000E9441106C2F60618DE996E00E94411071
:1021400060E28DE996E00E9441108091BC060E94F9
:102150005F1060E28DE996E00E9441106CE08DE92D
:1021600096E0CF910C944110FF920F931F93CF9361
:10217000DF939091BE06992339F08091BF068F5F5F
:102180008917E8F58093BF06D091C206D695D695FB
:10219000D69584E5D89F800111248091C306869549
:1021A000869586958D1780F16D2F60648DE996E098
:1021B0000E944110C091C006F090C1066C2F60686B
:1021C0008DE996E00E94411061E08091BB060E947B
:1021D000CE064F2D50E06C2F70E0461B570B4F5F23
:1021E0005F4F600F711F6F5F7D4F8091B8069091B8
:1021F000B9060E94FC06DF5F0C5A1F4FCECF10922B
:10220000BF060E947610C0CF60E48DE996E00E9480
:10221000411083E58093C0061092C1068FE280933F
:10222000C2061092C306DF91CF911F910F91FF90CC
:1022300008951F93CF93DF93EC01162F60E20E9465
:1022400041106CE011116DE0CE01DF91CF911F9133
:102250000C944110FC0177FD55C08085918568176D
:1022600079070CF04FC057FD4DC082859385481704
:1022700059070CF047C08689823009F444C0833086
:1022800009F44EC0813031F48FE290E0861B970B49
:10229000BA01AC01842FA62F93A1691708F4962FD9
:1022A00093A394A19A1708F49A2F94A395A1891740
:1022B00008F4982F95A396A1981708F4982F96A341
:1022C000CA0157FD0796E3E095958795EA95E1F7F2
:1022D000A4E5A89FF001A99FF00D1124E60FF71FB8
:1022E000EF5FFD4FCA0168E070E00E94012341E00A
:1022F00050E001C0440F8A95EAF78081232BB9F0A2
:10230000842B8083089583E590E0DC01A61BB70B46
:10231000BD018FE290E0DC01A41BB50BAD01BACF8B
:1023200083E590E0841B950BAB01BC01B3CF4095D6
:102330008423E7CF089590E080E008958F929F92E4
:10234000AF92BF92FF920F931F93CF93DF93FC0145
:10235000F0808FE28F1508F44AC0828108E512E010
:10236000081B110987FD1395000F111F000F111F86
:102370008181C8E8D0E0C81BD10987FDD395CC0F77
:10238000DD1FCC0FDD1F4E010D2E000CAA08BB086F
:102390009801012E000C440B550B281939094A09E4
:1023A0005B09DB010E949D2124EB30E040E050E01E
:1023B0000E947321820E931EA41EB51E8C169D06CC
:1023C0002CF0E801801691060CF4E4012297CC0F62
:1023D000DD1F2FB7F8948F2D90E0FC01EE0FFF1F4B
:1023E000E80FF91FEA5FF94FD283C1832FBFDF9156
:1023F000CF911F910F91FF90BF90AF909F908F90C2
:1024000008951F93CF93DF93EC01162F88818033BB
:1024100008F04EC061E0812F0E9499078881282F23
:1024200030E0F901EE0FFF1FE20FF31FEA5FF94FF3
:102430001F736081607C612B608319821A822CE09B
:10244000622F0E94F522829FB001112430E020E02B
:10245000AB01420F531FFA01EE0FFF1FE40FF51FF0
:10246000EA5FF94F908196FD16C02F5F3F4F2C30E9
:10247000310571F7813009F51092800082E0809378
:1024800081001092850010928400B19A80916F00B3
:10249000826080936F00E8818E2F90E0FC01EE0F48
:1024A000FF1FE80FF91FEA5FF94F80818064808386
:1024B0008881DF91CF911F910895823061F410924D
:1024C000900080939100109295001092940088BB28
:1024D00080937100E0CF833069F41092A00082E015
:1024E0008093A1001092A5001092A40089BB809354
:1024F0007200D1CF8111CFCF1092200182E0809362
:10250000210110922501109224018ABB809373004F
:10251000C2CFAF92BF92CF92DF92EF92FF920F9312
:102520001F93CF93DF936B017A01EC01C454DB4F0F
:1025300028813CE0389F8001399F100D1124A09024
:102540009606B12C27FF1FC0FB01118210828881E3
:102550008F5F888388819801280F311D87FD3A9508
:10256000F6012A153B051CF488818C30C4F180816A
:102570009181049680349C4908F473C0F6018081EF
:102580009181049670C088819801280F311D87FDC4
:102590003A952A153B05DCF68881A801480F511DA4
:1025A00087FD5A95FA01EE0FFF1FE40FF51FEA5F52
:1025B000F94F808186FFCBCF8881F801E80FF11DAC
:1025C00087FDFA95CF01EE0FFF1FE80FF91FEA5FB5
:1025D000F94F808160E08F730E94CE06B8CF808172
:1025E00091812881A801420F511D27FD5A959A011A
:1025F000FA01EE0FFF1FE20FF31FEA5FF94F21818F
:102600003281820F931FF701918380838881980123
:10261000280F311D87FD3A95F901EE0FFF1FE20FDC
:10262000F31FEA5FF94F808186FF22C08881080F7F
:10263000111D87FD1A95F801EE0FFF1FE00FF11F26
:10264000EA5FF94F808161E08F73DF91CF911F9135
:102650000F91FF90EF90DF90CF90BF90AF900C94D0
:10266000CE0680E49CE9F701918380838FEF888315
:10267000DF91CF911F910F91FF90EF90DF90CF905E
:10268000BF90AF900895E1E0F2E088EF91E0DF01C4
:102690009C011D9221503040E1F71092C0068091BC
:1026A000C106833508F483E58093C1061092C20603
:1026B0008091C3068F3208F48FE28093C306109294
:1026C000AA061092A9061092AC061092AB060895C5
:1026D000FB0101900020E9F73197AF01461B570B32
:1026E000DC01ED91FC910280F381E02D19948F9231
:1026F0009F92AF92BF92EF92FF920F931F93CF934F
:10270000DF93CDB7DEB7A1970FB6F894DEBF0FBE4B
:10271000CDBF7C01FA01CB0119A2223008F42AE0D6
:102720008E010F5D1F4F822E912CB12CA12CBF0169
:10273000A50194010E94A521F901CA016A300CF596
:10274000605DD8016E938D01232B242B252B79F707
:1027500090E080E0109721F0BD01C7010E9468134E
:10276000A1960FB6F894DEBF0FBECDBFDF91CF911B
:102770001F910F91FF90EF90BF90AF909F908F901F
:102780000895695CDECF2F923F924F925F926F92D5
:102790007F928F929F92AF92BF92CF92DF92EF92F1
:1027A000FF921F93CF93DF93EC016A017B01722E9E
:1027B000AB019601CB01B6010E94F0226AE574E0FC
:1027C000811126C046015701E894B7F82FEF3FEF7B
:1027D0004FE75FE7C501B4010E94F02281110CC0F0
:1027E0002FEF3FEF4FE75FE7C501B4010E944F2095
:1027F0006EE574E0181664F02FEF3FEF4FE75FE4EB
:10280000C701B6010E94EB221816B4F462E674E028
:10281000CE01DF91CF911F91FF90EF90DF90CF908D
:10282000BF90AF909F908F907F906F905F904F90F0
:102830003F902F900C9468132FEF3FEF4FE75FEC22
:10284000C701B6010E944F2087FDE0CF20E030E0B5
:10285000A901C701B6010E944F20312C212C87FF0E
:1028600009C06DE2CE010E9400051C01F7FAF09448
:10287000F7F8F09410E060E070E080E09FE37116FC
:1028800041F020E030E040E251E40E9443221F5F2B
:10289000F6CFA70196010E94D7212B013C010E948F
:1028A000BC224B015C012AE0BC01A401CE010E94C4
:1028B00077137C01E20CF31C1123C1F1C501B401B3
:1028C0000E9454209B01AC01C301B2010E94D62199
:1028D0004B015C016EE2CE010E940005E80EF91E7C
:1028E000115020F120E030E040E251E4C501B40194
:1028F0000E94B5202B013C010E94BC224B01B12C4F
:10290000A12C2AE0B501A401CE010E947713E80EA4
:10291000F91EC501B4010E9454209B01AC01C30102
:10292000B2010E94D6214B015C01DACFC701DF91D1
:10293000CF911F91FF90EF90DF90CF90BF90AF901D
:102940009F908F907F906F905F904F903F902F90CF
:1029500008950C9468130E9437250F931F93CF930B
:10296000DF93EC0188819981009759F02A813B819E
:102970002617370730F081E0DF91CF911F910F913B
:1029800008958B016F5F7F4F0E945624009759F086
:10299000998388831B830A832C813D81232B59F7DC
:1029A000FC011082E8CF80E0E7CFEF92FF920F9317
:1029B0001F93CF93DF936115710541F480E0DF91A0
:1029C000CF911F910F91FF90EF9008954115510500
:1029D000B1F07B01EC010C811D81040F151FB801C2
:1029E0000E94AD14882351F3288139818C819D8107
:1029F000B701820F931F0E944E251D830C8381E037
:102A0000DECFCF93DF93EC0188819981009711F09D
:102A10000E94CD23198218821D821C821B821A8279
:102A2000DF91CF910895EF92FF920F931F93CF9371
:102A3000DF93EC017B01198218821B821A821D82AE
:102A40001C82FB0101900020E9F731978F01061BE2
:102A5000170BB8010E94AD14811109C0CE01DF919E
:102A6000CF911F910F91FF90EF900C9401151D8352
:102A70000C83B70188819981DF91CF911F910F91CC
:102A8000FF90EF900C944E2570E060E084EC96E0AF
:102A90000E94AD14811104C084EC96E00C940115E1
:102AA0001092C9061092C8066BE774E08091C406C4
:102AB0009091C5060C944E25FC0180819181009770
:102AC00011F00C94CD2308951F93CF93DF9385EDE0
:102AD0008093BC008091C3049091C404A091C5046C
:102AE000B091C6040796A11DB11D23E0B695A79528
:102AF000979587952A95D1F72091BC0024FD03C0B6
:102B000010920B0552C04091C3045091C4046091CF
:102B1000C5047091C604452B462B472B69F30097DB
:102B2000A105B10541F025E32A95F1F700000197D1
:102B3000A109B109E1CF8091C204C1E0C093C104F1
:102B4000882399F1D091B8001091BA008091BC000F
:102B50008A7B8093BC0060E084E10E94CE0660E046
:102B600085E10E94CE0610920B05C0930D051092D0
:102B70000C0561E084E10E94CE0661E085E10E94DF
:102B8000CE068091B9008E7F8093B9008091B90004
:102B90008D7F8093B90088E48093B80085E48093AA
:102BA000BC001093BA00D093B800DF91CF911F9171
:102BB00008951F920F920FB60F9211240BB60F9229
:102BC0002F933F934F935F936F937F938F939F9335
:102BD000AF93BF93EF93FF9380915D0590915E0556
:102BE000A0915F05B0916005892B8A2B8B2BE1F1B9
:102BF00090914C05E0914D05F0914E05808189271B
:102C0000808380915D0590915E05A0915F05B091F4
:102C10006005181619061A061B069CF480915D05BE
:102C200090915E05A0915F05B09160050197A109A3
:102C3000B10980935D0590935E05A0935F05B09305
:102C40006005FF91EF91BF91AF919F918F917F911F
:102C50006F915F914F913F912F910F900BBE0F900D
:102C60000FBE0F901F901895809100020E9454078C
:102C7000E8CF1F920F920FB60F9211240BB60F924E
:102C80002F933F934F935F936F937F938F939F9374
:102C9000AF93BF93EF93FF9389E695E00E947B0586
:102CA000FF91EF91BF91AF919F918F917F916F9124
:102CB0005F914F913F912F910F900BBE0F900FBEE0
:102CC0000F901F9018951F920F920FB60F9211241C
:102CD0000BB60F922F938F939F93EF93FF93E091F7
:102CE0007905F0917A058081E0917F05F09180056A
:102CF00082FD1DC09081809182058F5F8F7320912E
:102D00008305821741F0E0918205F0E0E759FA4F20
:102D1000958F80938205FF91EF919F918F912F91D5
:102D20000F900BBE0F900FBE0F901F9018958081D3
:102D3000F2CF1F920F920FB60F9211242F933F9351
:102D40008F939F93AF93BF938091320590913305FA
:102D5000A0913405B09135053091310523E0230F62
:102D60002D3758F50196A11DB11D20933105809393
:102D7000320590933305A0933405B09335058091C7
:102D8000360590913705A0913805B0913905019627
:102D9000A11DB11D8093360590933705A09338058A
:102DA000B0933905BF91AF919F918F913F912F9132
:102DB0000F900FBE0F901F90189526E8230F0296D4
:102DC000A11DB11DD2CF1F920F920FB60F921124E9
:102DD0000BB60F922F933F934F935F936F937F9315
:102DE0008F939F93AF93BF93EF93FF938091B9001D
:102DF000887F803609F44DC008F040C0883209F45D
:102E0000A7C028F5803109F49BC0C8F4882309F4D1
:102E1000F7C0883009F494C0FF91EF91BF91AF9152
:102E20009F918F917F916F915F914F913F912F91E2
:102E30000F900BBE0F900FBE0F901F90189588310A
:102E400009F486C0803241F780930A0514C08034AB
:102E500009F49BC040F48033B9F38833E9F68093DA
:102E60000A0585ECAEC0803509F483C0883509F4C5
:102E700094C0883489F60E946415CECF883909F44D
:102E80008AC038F5883729F050F4883611F0803739
:102E900019F683E080930B051092090555C0883818
:102EA00009F479C0803919F0803809F0B5CF8091E4
:102EB0000905803208F06FC0E091090581E08E0FAE
:102EC000809309058091BB00F0E0E751FB4F8083C0
:102ED0003BC0803B39F0D0F4803A09F477C0883A9F
:102EE00009F09ACF84E080930B051092E8041092C9
:102EF000E704F0E0E0E019958091E70481110FC04C
:102F000081E08093E7041092C70409C0803C09F473
:102F1000A8CF883C09F4A5CF883B09F07DCFE0918C
:102F2000E80481E08E0F8093E804F0E0E953FB4F62
:102F300080818093BB009091E8048091E70429C0D0
:102F4000809130058093BB0085EC8093BC0064CFFA
:102F500090912F0580912E05981758F5E0912F0537
:102F600081E08E0F80932F05F0E0E25FFA4F8081C1
:102F7000E9CFE0912F0581E08E0F80932F0580919E
:102F8000BB00F0E0E25FFA4F808390912F058091C3
:102F90002E059817C8F285E8D8CFE0912F0581E07B
:102FA0008E0F80932F058091BB00F0E0E25FFA4F17
:102FB000808380910D0581115ECF81E080930C05A7
:102FC00084EA8093BC0010920B0526CF85EC809399
:102FD000BC0010920B0580910905803230F4E0911D
:102FE0000905F0E0E751FB4F10826091090570E0A0
:102FF00089EE94E0F0E0E0E01995109209050CCF1D
:1030000010920A0538CF1F920F920FB60F9211241B
:103010000BB60F922F933F934F935F936F937F93D2
:103020008F939F93AF93BF93EF93FF9348E251E049
:1030300064E271E090E080E00E948912FF91EF91DC
:10304000BF91AF919F918F917F916F915F914F91C0
:103050003F912F910F900BBE0F900FBE0F901F90BE
:1030600018951F920F920FB60F9211240BB60F9264
:103070002F933F934F935F936F937F938F939F9380
:10308000AF93BF93EF93FF9348EA50E064EA70E098
:1030900083E090E00E948912FF91EF91BF91AF9180
:1030A0009F918F917F916F915F914F913F912F9160
:1030B0000F900BBE0F900FBE0F901F9018951F9290
:1030C0000F920FB60F9211240BB60F922F933F93CE
:1030D0004F935F936F937F938F939F93AF93BF9320
:1030E000EF93FF9348E950E064E970E082E090E0FC
:1030F0000E948912FF91EF91BF91AF919F918F91A3
:103100007F916F915F914F913F912F910F900BBEE7
:103110000F900FBE0F901F9018951F920F920FB631
:103120000F9211240BB60F922F933F934F935F93FF
:103130006F937F938F939F93AF93BF93EF93FF937F
:1031400048E850E064E870E081E090E00E94891275
:10315000FF91EF91BF91AF919F918F917F916F916F
:103160005F914F913F912F910F900BBE0F900FBE2B
:103170000F901F901895CF92DF92EF92FF920F93CE
:103180001F93E82FF92F05C00150110921093109BA
:1031900061F1908196239417B9F305C0015011098C
:1031A0002109310911F1908196239413F7CFC12C95
:1031B000D12CE12CF12C0AC08FEFC81AD80AE80AEA
:1031C000F80A0C151D052E053F0579F08081862330
:1031D000841791F36C2D7D2D8E2D9F2D1F910F91B6
:1031E000FF90EF90DF90CF90089560E070E080E076
:1031F00090E01F910F91FF90EF90DF90CF90089596
:103200001F93CF93DF9310926C0510926B0588EE9D
:1032100093E0A0E0B0E080936D0590936E05A093DD
:103220006F05B093700586E194E090936A058093F2
:10323000690585EC90E0909376058093750584ECA4
:1032400090E0909378058093770580EC90E09093E0
:103250007A058093790581EC90E090937C058093CA
:103260007B0582EC90E090937E0580937D0586EC53
:1032700090E09093800580937F05109282051092D4
:10328000830510928405109285051092D206109243
:10329000D6061092D5061092D70684E594E0909356
:1032A000D1068093D006ECEEF6E0108214821382F1
:1032B0001582369687E0E832F807B9F78CEF93E08D
:1032C000909333078093320789EF93E0909335070B
:1032D0008093340714E01093360783E08093370718
:1032E00080E094E090933107809330078AE090E08B
:1032F000909339078093380784EF91E090933B07D0
:1033000080933A0710923E0710923D0710922C07C7
:1033100010922D0710922E0710922F0710923C0743
:1033200066E674E08AEC96E00E9413156BE774E0A1
:1033300084EC96E00E9413151092A00610929F064E
:1033400024E530E03093A2062093A10680E390E0CC
:103350009093A4068093A3063093A6062093A50617
:103360009093A8068093A7061092B3061092AA061F
:103370001092A9061092AC061092AB0681E08093E1
:10338000B2068093B1062FEF3FEF3093B006209343
:10339000AF063093AE062093AD068093B40610922C
:1033A000B5061092B7061092B60688E294E09093A4
:1033B0009E0680939D068CE190E00E943123EC01F3
:1033C0001B8787E08C871FEF1E8785E08D87EFE7DF
:1033D000F7E0E491F0E0EE0FFF1FEF59F84F859111
:1033E00094919E8B8D8BEFE1F7E0E491EA8FE0E81A
:1033F000F7E0E491F0E0EE0FFF1FEF59F84F8591F1
:103400009491988B8F87E0E2F7E0E491EF8BE2E80C
:10341000F7E0E491F0E0EE0FFF1FEF59F84F8591D0
:1034200094919A8B898BE2E2F7E0E491E98F80E056
:1034300099E0ADE3B0E08C839D83AE83BF8381E0F0
:1034400090E0998788871A861B8E82E090E00E9420
:10345000312320E5FC01208311829B838A8319821A
:103460001882D093B906C093B80686E08093BB0655
:1034700088E08093BA0680919606803360F591E0EB
:10348000980F9093960680939A0690E0FC01EE0FB9
:10349000FF1FE80FF91FEA5FF94F88EB9BE092836B
:1034A0008183809196068033C8F491E0980F9093C1
:1034B00096068093970690E0FC01EE0FFF1FE80F41
:1034C000F91FEA5FF94F88EB9BE092838183DF91DC
:1034D000CF911F91089510939A06E3CF8FEF8093B9
:1034E0009706F5CFCF93DF9300D000D0CDB7DEB7EE
:1034F000789484B5826084BD84B5816084BD85B5CF
:10350000826085BD85B5816085BD80916E008160DA
:1035100080936E0010928100809181008260809380
:103520008100809181008160809381008091800082
:103530008160809380008091B10084608093B100AD
:103540008091B00081608093B00080919100826092
:10355000809391008091910081608093910080918F
:1035600090008160809390008091A10082608093A0
:10357000A1008091A10081608093A1008091A000B2
:1035800081608093A000809121018260809321015D
:1035900080912101816080932101809120018160CF
:1035A0008093200180917A00846080937A008091DA
:1035B0007A00826080937A0080917A0081608093A3
:1035C0007A0080917A00806880937A001092C1001E
:1035D000E0917905F0917A0582E08083E0917505AC
:1035E000F09176051082E0917705F09178058FECE7
:1035F000808310928105E0917D05F0917E0586E043
:103600008083E0917B05F0917C05808180618083DF
:10361000E0917B05F0917C05808188608083E0915A
:103620007B05F0917C05808180688083E0917B053B
:10363000F0917C0580818F7D808361E082E00E9433
:10364000990761E083E00E94990761E084E00E94AD
:10365000990761E08CE00E94990760E086E10E9492
:10366000990760E08BE00E94990760E087E30E9481
:10367000990760E08DE30E94990760E082E30E9471
:1036800099070091B8061091B906F80183858F3F1C
:1036900041F061E00E94990761E0F80183850E9492
:1036A000CE06F80180819181892B09F4C3C0FFB651
:1036B000F89480913A05811127C0E0EBF7E08491FE
:1036C000E0E5F7E09491E82FF0E0EE0FFF1FEA51FC
:1036D000F94FA591B491EC91E92321F461E085E3E0
:1036E0000E94CE0661E085E30E9499078CB5806157
:1036F0008CBD8CB580648CBD61E084E30E94990729
:1037000061E083E30E94990780913A058F5F80937F
:103710003A05FFBE81E0F801838F61E08091BB062E
:103720000E9499078091BA0687FD03C061E00E945C
:10373000990784E08093BD0688E28093BC061092CE
:10374000BE061092BF060E9476101092C0068091AD
:10375000C106833508F483E58093C1061092C20642
:103760008091C3068F3208F48FE28093C3060E94D3
:10377000B4100E9443130E94B41082E30E945F10B1
:103780001092AA061092A9061092AC061092AB06EF
:1037900081E090E09093B0068093AF069093AE06E0
:1037A0008093AD060E94431360E088E30E9499076E
:1037B00069E070E08AE996E00E9401126AE070E038
:1037C00087E996E00E940112412C512C320143946A
:1037D00056E0252EF1E0F0933C070E94F509009198
:1037E0002C0710912D0720912E0730912F07AB0148
:1037F000BC01401B510B620B730B809138079091F9
:103800003907B0E0A0E084179507A607B70708F0CE
:1038100029C110E080913607181770F5E091320742
:10382000F0913307E10FF11D62E080810E9499075A
:103830001F5FF0CF61E084850E949907F8018285BF
:103840008B7F60E009F061E084850E94CE06F8017C
:1038500085858F3F41F061E00E94990761E0F801A2
:1038600085850E94CE06F80186858F3F09F452CFE8
:1038700060E00E9499074ECFA12C80913707A816CF
:1038800008F061C0EA2CF12CE0913407F091350783
:10389000EE0DFF1D61E080810E949907E0913407E1
:1038A000F0913507EE0DFF1D60E080810E94CE068D
:1038B000D301C2010A2C04C0880F991FAA1FBB1F85
:1038C0000A94D2F74C016C01C094D094312C8091B1
:1038D0003607381608F5032D10E0E0913207F09115
:1038E0003307E00FF11F80810E94A2060C5F1F4F7B
:1038F000000F111FF801E053F94F892B41F480812B
:10390000918188299929918380833394E0CF8081A4
:1039100091818C219D21F7CFE0913407F0913507FB
:10392000EE0DFF1D61E080810E94CE06809134077C
:1039300090913507E80EF91E60E0F70180810E9442
:103940009907A3949ACF20EDE22E26E0F22EF701FC
:10395000878D90A1892B31F4148E0FEF1FEF168FF6
:10396000058F11A2369617E0EC30F10789F7D12CBC
:1039700080913607D81608F050C0C12C0D2D10E0EC
:10398000000F111F0852194F20913707C21608F077
:1039900042C0F801608171810C2C02C07695679558
:1039A0000A94E2F7D29E900111242C0D311DE0ED16
:1039B000F6E080E0458D568D2417350709F445C3A0
:1039C0008F5F36968A30B1F760FF23C0E0EDF6E0F6
:1039D00090E080E0448D411117C0E0913007F091F4
:1039E0003107E20FF31F4081289EF001299EF00D60
:1039F0001124E053F94F448F368F258F10A2178E74
:103A000061E00E94010A05C0019636968A30910550
:103A100009F7C394B9CFD394ABCF10E0F70181A1DC
:103A20008111182FF6E0EF0EF11C0CE0E01607E014
:103A3000F006A1F70E94F50960932C0770932D07FB
:103A400080932E0790932F07112361F08091F10648
:103A5000882341F08091EF069091F006F090EC06FB
:103A6000019719F010923C07F12C0E94F509609320
:103A7000450570934605809347059093480560E09F
:103A80008CE00E94CE068BE090E00197F1F761E0B8
:103A90008CE00E94CE0683E290E00197F1F760E0AF
:103AA0008CE00E94CE06E6E2F7E06491E6E8F7E0FB
:103AB0008491E82FF0E0EE0FFF1FEF5FF84F859144
:103AC000949100E412E42FE030E0462F0E94BB18EE
:103AD000611571058105910529F06F5F7F4F8F4F4B
:103AE0009F4F9F700E9454202AE939E949E652E429
:103AF0000E9443220E94B5226093410570934205C3
:103B0000809343059093440520914005222309F4B6
:103B10002BC20E94562020E030E040E251E40E9497
:103B20004F2018160CF41CC20E94D50787E30E9490
:103B30008709BC01990F880B990B0E94562020E041
:103B400030E040EA5BE30E94B5204B015C01AC0130
:103B50009B0160E070E080EA90E40E94D6219B0126
:103B6000AC016FE175E88BE291E40E944322A5016C
:103B700094010E94B5209B01AC0160E070E08AEFE7
:103B800093E40E9443220E94B522072E000C880B6A
:103B9000990B0E94562020E030E04AE754E40E944E
:103BA0004F2061E018160CF460E083E00E94CE061E
:103BB00063E774E0CE0101960E9413154091C80698
:103BC0005091C9066091C4067091C506CE01019658
:103BD0000E94D514811104C0CE0101960E940115E6
:103BE00041E050E06AE774E0CE0101960E94D514EE
:103BF000811104C0CE0101960E9401154D815E81A4
:103C000069817A818DE996E00E940705CE010196CF
:103C10000E945C15FF2081F06F2D89E695E00E94DF
:103C2000000569E774E089E695E00E946813FAE20E
:103C3000FF12C0C10E94441586E10E94A2060197AE
:103C400009F0F7C101E0009340056CE874E08DE9EC
:103C500096E00E94A914C0904105D0904205E090E2
:103C60004305F09044052AE0B701A601F7FE0DC018
:103C70006DE28DE996E00E94000544275527BA01C0
:103C80004C195D096E097F092AE08DE996E00E94D2
:103C9000771362E974E08DE996E00E94A9146AE75F
:103CA00074E08DE996E00E94A91465E974E08DE95D
:103CB00096E00E94A91487E30E948709BC01990F2E
:103CC000880B990B0E94562020E030E040EA5BE32D
:103CD0000E94B5206B017C01AC019B0160E070E0AB
:103CE00080EA90E40E94D6219B01AC016FE175E867
:103CF0008BE291E40E944322A70196010E94B52025
:103D00009B01AC0160E070E08AEF93E40E944322E3
:103D10000E94B522072E000C880B990B0E9456209A
:103D2000AB01BC0122E08DE996E00E94C31368E973
:103D300074E08DE996E00E94A9146AE774E08DE9C9
:103D400096E00E94A9146BE974E08DE996E00E9468
:103D5000A91488E30E948709BC01990F880B990B6D
:103D60000E94562025E034E240E95CE30E94B52041
:103D700020E030E048E851E40E94D721AB01BC01CB
:103D800022E08DE996E00E94C3136FE974E08DE9AB
:103D900096E00E94A9146AE774E08DE996E00E941B
:103DA000A91464EF71E080E090E00E94C3090E94D2
:103DB000B4100E94431382E30E94A206019709F007
:103DC0003BC16BE270E08AE996E00E949E116BE7CE
:103DD00070E087E996E00E949E118DE30E948709BA
:103DE000BC01990F880B990B0E94562024E13EEAF2
:103DF00043E251E40E94432220E030E048EC51E4E9
:103E00000E944F20181654F061E084E00E94CE0614
:103E100064EF71E080E090E00E94C30960E084E01C
:103E20000E94CE068091450590914605A0914705D8
:103E3000B091480540913B0550913C0560913D058E
:103E400070913E058C019D01041B150B260B370B51
:103E5000B901A801413157426105710508F47DC0DF
:103E600080933B0590933C05A0933D05B0933E05A0
:103E700088E30E948709BC01990F880B990B0E9467
:103E8000562025E034E240E95CE30E94B52020E0C2
:103E900030E048E851E40E94D721AB01BC0122E0A8
:103EA00089E695E00E94C31361EA74E089E695E033
:103EB0000E94A9148DE30E948709BC01990F880B09
:103EC000990B0E94562024E13EEA43E251E40E940D
:103ED0004322AB01BC0122E089E695E00E94C313B6
:103EE00061EA74E089E695E00E94A91482E30E94E9
:103EF000A20663EA74E0019711F066EA74E089E6CD
:103F000095E00E94A91461EA74E089E695E00E94B8
:103F1000A9148091400566EA74E0811102C063EA49
:103F200074E089E695E00E94A91461EA74E089E6EC
:103F300095E00E94A91480913F0569EA74E081111F
:103F400002C060EB74E089E695E00E94A91461EA82
:103F500074E089E695E00E94A9140E940A063ACC12
:103F60008DE00E945407E2CD60E083E00E94CE061F
:103F700080913F058823A1F082E30E94A206892B4D
:103F8000A9F40E94D50761E082E00E94CE0664EFAA
:103F900071E080E090E00E94C30960E082E006CE1C
:103FA00069E674E08DE996E00E94A9148DE00E9414
:103FB0005407F3CF03E2F01230C02091CE063091C7
:103FC000CF068091C8069091C90628173907B1F429
:103FD0008091CA069091CB066091C4067091C50687
:103FE0000097A9F16115710531F4232BE9F1FC016A
:103FF000808190E037C00E94452534C063E874E0BA
:104000008DE996E00E94A9140E94441560E177E2D0
:1040100080E090E00E94C3090FCEF9821A8241E04D
:1040200050E0BE016F5F7F4F84EC96E00E94D51494
:1040300003CE1092400509CE63EB70E08AE996E06A
:104040000E949E1170E060E0C4CE6170DACC611510
:10405000710551F0232B41F0FB01808190E0919597
:1040600081959109892B51F66CE774E08DE996E012
:104070000E94A91460E177E280E090E00E94C30909
:1040800080913F05F1E08F2780933F05D3CD84ECED
:1040900096E00E945C158AEC96E00C945C150E94F8
:1040A000912008F481E00895E89409C097FB3EF45C
:1040B00090958095709561957F4F8F4F9F4F992375
:1040C000A9F0F92F96E9BB279395F69587957795F3
:1040D0006795B795F111F8CFFAF4BB0F11F460FFB3
:1040E0001BC06F5F7F4F8F4F9F4F16C0882311F00B
:1040F00096E911C0772321F09EE8872F762F05C01F
:10410000662371F096E8862F70E060E02AF09A95B9
:10411000660F771F881FDAF7880F9695879597F9AE
:104120000895990F0008550FAA0BE0E8FEEF161648
:104130001706E807F907C0F012161306E407F5079B
:1041400098F0621B730B840B950B39F40A2661F00F
:10415000232B242B252B21F408950A2609F4A140B2
:10416000A6958FEF811D811D08950E94C8200C9493
:1041700039210E942B2138F00E94322120F0952312
:1041800011F00C9422210C94282111240C946D21FF
:104190000E944A2170F3959FC1F3950F50E0551F7F
:1041A000629FF001729FBB27F00DB11D639FAA278C
:1041B000F00DB11DAA1F649F6627B00DA11D661FDB
:1041C000829F2227B00DA11D621F739FB00DA11DFC
:1041D000621F839FA00D611D221F749F3327A00DB6
:1041E000611D231F849F600D211D822F762F6A2F52
:1041F00011249F5750409AF0F1F088234AF0EE0FB7
:10420000FF1FBB1F661F771F881F91505040A9F7E3
:104210009E3F510580F00C9422210C946D215F3F4C
:10422000E4F3983ED4F3869577956795B795F7951F
:10423000E7959F5FC1F7FE2B880F911D9695879597
:1042400097F9089597F99F6780E870E060E0089516
:104250009FEF80EC089500240A941616170618069E
:104260000906089500240A9412161306140605067A
:104270000895092E0394000C11F4882352F0BB0F0B
:1042800040F4BF2B11F460FF04C06F5F7F4F8F4F6E
:104290009F4F089557FD9058440F551F59F05F3FA9
:1042A00071F04795880F97FB991F61F09F3F79F058
:1042B00087950895121613061406551FF2CF4695DA
:1042C000F1DF08C0161617061806991FF1CF86955C
:1042D0007105610508940895E894BB276627772740
:1042E000CB0197F90895052E97FB1EF400940E94C8
:1042F0008A2157FD07D00E94A52107FC03D04EF468
:104300000C948A2150954095309521953F4F4F4F01
:104310005F4F089590958095709561957F4F8F4F71
:104320009F4F08950E94C721A59F900DB49F900DA7
:10433000A49F800D911D11240895B7FF0C94922124
:104340000E949221821B930B0895A1E21A2EAA1BB0
:10435000BB1BFD010DC0AA1FBB1FEE1FFF1FA21735
:10436000B307E407F50720F0A21BB30BE40BF50B32
:10437000661F771F881F991F1A9469F760957095BB
:10438000809590959B01AC01BD01CF010895A29F3E
:10439000B001B39FC001A39F700D811D1124911D19
:1043A000B29F700D811D1124911D08955058BB2797
:1043B000AA270E94EE210C9439210E942B2138F06B
:1043C0000E94322120F039F49F3F19F426F40C9416
:1043D00028210EF4E095E7FB0C942221E92F0E949E
:1043E0004A2158F3BA17620773078407950720F02C
:1043F00079F4A6F50C946C210EF4E0950B2EBA2FEF
:10440000A02D0B01B90190010C01CA01A0011124DA
:10441000FF27591B99F0593F50F4503E68F11A1686
:10442000F040A22F232F342F4427585FF3CF469517
:1044300037952795A795F0405395C9F77EF41F1639
:10444000BA0B620B730B840BBAF09150A1F0FF0F03
:10445000BB1F661F771F881FC2F70EC0BA0F621FEF
:10446000731F841F48F4879577956795B795F795DF
:104470009E3F08F0B0CF9395880F08F09927EE0F74
:104480009795879508950E9457220C9439210E9490
:10449000322158F00E942B2140F029F45F3F29F08F
:1044A0000C94222151110C946D210C9428210E940E
:1044B0004A2168F39923B1F3552391F3951B550BCA
:1044C000BB27AA2762177307840738F09F5F5F4FE7
:1044D000220F331F441FAA1FA9F335D00E2E3AF026
:1044E000E0E832D091505040E695001CCAF72BD03E
:1044F000FE2F29D0660F771F881FBB1F261737078F
:104500004807AB07B0E809F0BB0B802DBF01FF27C0
:1045100093585F4F3AF09E3F510578F00C9422215A
:104520000C946D215F3FE4F3983ED4F38695779524
:104530006795B795F7959F5FC9F7880F911D969579
:10454000879597F90895E1E0660F771F881FBB1FD5
:10455000621773078407BA0720F0621B730B840B82
:10456000BA0BEE1F88F7E09508950E94BC2268946C
:10457000B1110C946D2108950E94522188F09F572B
:1045800098F0B92F9927B751B0F0E1F0660F771F77
:10459000881F991F1AF0BA95C9F714C0B13091F06D
:1045A0000E946C21B1E008950C946C21672F782F44
:1045B0008827B85F39F0B93FCCF386957795679532
:1045C000B395D9F73EF490958095709561957F4F9E
:1045D0008F4F9F4F08950E94912008F48FEF089508
:1045E0000E949120880B990B0895991B79E004C0D3
:1045F000991F961708F0961B881F7A95C9F7809522
:10460000089597FB072E16F4009407D077FD09D084
:104610000E941D2307FC05D03EF4909581959F4F85
:104620000895709561957F4F0895EE0FFF1F881FC5
:104630008BBF0790F691E02D1994AA1BBB1B51E18B
:1046400007C0AA1FBB1FA617B70710F0A61BB70B02
:10465000881F991F5A95A9F780959095BC01CD01A7
:1046600008950F931F93CF93DF938230910510F439
:1046700082E090E0E0914107F091420730E020E0D5
:10468000B0E0A0E0309799F42115310509F44AC053
:10469000281B390B24303105D8F58A819B8161159F
:1046A000710589F1FB0193838283FE0111C0408172
:1046B00051810281138148175907E0F048175907C3
:1046C00099F4109761F012960C93129713961C931D
:1046D0003296CF01DF91CF911F910F9108950093F2
:1046E000410710934207F4CF2115310551F04217CD
:1046F000530738F0A901DB019A01BD01DF01F80180
:10470000C1CFEF01F9CF9093420780934107CDCFFE
:10471000FE01E20FF31F81939193225031093983F7
:104720002883D7CF20913F0730914007232B41F4B6
:1047300020910E0430910F043093400720933F07DF
:1047400020910C0430910D042115310541F42DB751
:104750003EB74091100450911104241B350BE09199
:104760003F07F0914007E217F307A0F42E1B3F0B21
:104770002817390778F0AC014E5F5F4F24173507D3
:1047800048F04E0F5F1F5093400740933F078193BF
:1047900091939FCFF0E0E0E09CCFCF93DF93009721
:1047A000E9F0FC01329713821282A0914107B09187
:1047B0004207ED0130E020E01097A1F42081318123
:1047C000820F931F20913F07309140072817390728
:1047D00009F061C0F0934007E0933F07DF91CF916C
:1047E0000895EA01CE17DF07E8F54A815B819E0153
:1047F00041155105B1F7E901FB83EA8349915991CC
:10480000C40FD51FEC17FD0761F4808191810296DA
:10481000840F951FE90199838883828193819B830B
:104820008A83F0E0E0E012968D919C9113970097B7
:10483000B9F52D913C911197CD010296820F931FEE
:1048400020913F07309140072817390739F63097F4
:1048500051F51092420710924107B0934007A09380
:104860003F07BCCFD383C28340815181840F951F02
:10487000C817D90761F44E5F5F4F88819981480F4F
:10488000591F518340838A819B81938382832115A1
:10489000310509F0B0CFF0934207E09341079ECF76
:1048A000FD01DC01C0CF13821282D7CF4F925F92FD
:1048B0006F927F928F929F92AF92BF92CF92DF9230
:1048C000EF92FF920F931F93CF93DF938C0100978A
:1048D00099F4CB01DF91CF911F910F91FF90EF9051
:1048E000DF90CF90BF90AF909F908F907F906F9010
:1048F0005F904F900C943123FC01E60FF71F9C0151
:1049000022503109E217F30708F4AEC0D901CD9166
:10491000DC911197C617D70720F1C530D10578F083
:10492000CE0104978617970750F0C61BD70B229726
:10493000C193D1936D937C93CF010E94CD23C80185
:10494000DF91CF911F910F91FF90EF90DF90CF906B
:10495000BF90AF909F908F907F906F905F904F909F
:1049600008955B01AC1ABD0A4C018C0E9D1EA091EE
:104970004107B0914207512C412CF12CE12C1097AA
:1049800031F580913F07909140078815990509F00E
:104990005CC04616570608F058C080910C049091F0
:1049A0000D04009741F48DB79EB7409110045091CB
:1049B0001104841B950BE817F90708F055C0F09314
:1049C0004007E0933F07F90171836083B8CF8D9171
:1049D0009C91119712966C90129713967C90139756
:1049E000A815B90559F56C0142E0C40ED11CCA14D2
:1049F000DB0420F1AC014A195B09DA011296159724
:104A000080F06282738251834083D9016D937C93DD
:104A1000E114F10471F0D7011396FC93EE93129711
:104A20008ECF22968C0F9D1FF90191838083F30115
:104A3000EFCFF0934207E093410781CF4816590624
:104A400008F42C017D01D3019ACFCB010E943123C0
:104A50007C01009749F0AE01B8010E943C25C801D5
:104A60000E94CD2387016BCF10E000E068CF81E08A
:104A700090E0F8940C945525FB01DC0102C00190F4
:104A80000D9241505040D8F70895FB01DC018D9103
:104A9000019080190110D9F3990B0895FB01DC01F5
:104AA00001900D920020E1F7089513E0C2EED3E0EB
:104AB00000E006C0802FFE010E9415232196011DF3
:0E4AC000C33ED10780E00807A9F7F894FFCFA6
:104ACE00FF000000000000000000000000000000D9
:104ADE0000000000000000000000000000000000C8
:104AEE0000000000000000C0E0F0F8FCFCFEFFFC3F
:104AFE00E0000000000000000000000000000000C8
:104B0E000000000000000000000000000000000097
:104B1E000000000000000000000000000000000087
:104B2E00000000000000F8F8F8F8F8F8F8F8F8F8C7
:104B3E00F8F8F0F0E0E0C080C0FCFFFFFFFF7F3F21
:104B4E007FFFFFFFFFFF00000000000000000000DD
:104B5E000000000000000000000000000000000047
:104B6E000000000000000000000000000000000037
:104B7E0000000000000000000000000F1F3F7FFF3C
:104B8E00FFFFFFFFFFFFFFE7C7C7878F9F9FFFFF57
:104B9E00FFC1C0E0FCFFFFFFFFFFFCFCFCFCFEFEC4
:104BAE00FEFCFCF8F8F0E0C0C000000000000000C1
:104BBE0000000000000000000000000000000000E7
:104BCE0000000000000000000000000000000000D7
:104BDE00000080C0E0F1FBFFFFFFFFFF7F1F0F0F04
:104BEE0087E7FFFFFF1F1F3FF9F8F8F8F8F8F8FD09
:104BFE00FFFFFFFFFFFFFFFFFF7F3F0F07010000DB
:104C0E000000000000000000000000000000000096
:104C1E000000000000000000000000000000000086
:104C2E0000000000F0FEFFFFFFFFFFFFFFFFFFFF92
:104C3E00FE7E3F3F0F1FFFFFFFFCF0E0F1FFFFFF87
:104C4E00FFFFFCF001010101010101010000000064
:104C5E000000000000000000000000000000000046
:104C6E000000000000000000000000000000000036
:104C7E00000000000000000003030303030303030E
:104C8E000101010100000000000000030F1F3F7F23
:104C9E007FFFFFFFFF7F7F1F03000000000000006B
:104CAE0000000000000000000000000000000000F6
:104CBE000000000000000000001F21232B292725E3
:104CCE003132333435363738392A30230000430732
:104CDE008000000000009D0507053405EA05650506
:104CEE004305570500000000E90C07059B119A11BA
:104CFE002A11840A8E0F660F820F760F950F840A83
:104D0E00AF0A19112D0FF40EAF0E920E1A0EBB0D27
:104D1E000000000083095007CB066E616E00696EBD
:104D2E0066006F7666003132005365675F4F464608
:104D3E00200A00506173733A000D0A00435F436FFF
:104D4E00200A00435F496E636F200A004469737442
:104D5E003A00636D004C3A006C780041433A0043D0
:104D6E00002C004E4F005349004143544956410018
:0C4D7E0044455341435449564144410010
:00000001FF
