:100000000C9406040C9437040C9437040C943704B5
:100010000C9437040C9437040C9437040C94370474
:100020000C9437040C9437040C9437040C94370464
:100030000C943F150C9437040C9437040C9437043B
:100040000C9437040C94E0150C9437040C9437048A
:100050000C9437040C9437040C9437040C94D51387
:100060000C9437040C949F130C9475130C94370460
:100070000C9437040C9437040C9437040C94370414
:100080000C94B2150C9437040C9437040C94370478
:100090000C9437040C9437040C9437040C941F14FC
:1000A0000C9437040C9437040C9484150C94370486
:1000B0000C9437040C9437040C9437040C945615A4
:1000C0000C9437040C9437040C9437040C943704C4
:1000D0000C9437040C9437040C9437040C943704B4
:1000E0000C94370408000000BE922449123EABAACB
:1000F000AA2ABECDCCCC4C3E00000080BEABAAAA42
:10010000AA3E00000000BF000000803F0000000089
:1001100000084178D3BB4387D1133D190E3CC3BDC2
:100120004282AD2B3E68EC8276BED98FE1A93E4C6F
:1001300080EFFFBE01C4FF7F3F00000000000C9471
:10014000D5050C9443040C94A1040C94BE050C94A6
:10015000B0050C94BA050C94220F0C9437080C943B
:10016000B50C0C94A20B0C94AA050C949B050C9452
:100170000C080C94D9040C94230F0C94A7050C9430
:10018000430B0C94370C0C947F040C94EE0C0C94E1
:10019000D0050C941A0C0C9493040C9495050C94B3
:1001A00026050C94B4050C94FE0C0C947C0C0C9459
:1001B000D6050C94A10E0C9470040C940E160C949D
:1001C000710A0C94160D0C94C2050C940A0D0C9433
:1001D0001D0D0C94CC050C94A3050C94B20E0C943C
:1001E000DA050C949F050C94C80500000000003E41
:1001F0005B4F5B3E3E6B4F6B3E1C3E7C3E1C183C97
:100200007E3C181C577D571C1C5E7F5E1C00183CF2
:100210001800FFE7C3E7FF0018241800FFE7DBE73B
:10022000FF30483A060E2629792926407F05050722
:10023000407F05253F5A3CE73C5A7F3E1C1C08087E
:100240001C1C3E7F14227F22145F5F005F5F060943
:100250007F017F006689956A606060606094A2FF9C
:10026000A29408047E040810207E201008082A1C8E
:1002700008081C2A08081E101010100C1E0C1E0C5A
:1002800030383E3830060E3E0E06000000000000FA
:10029000005F00000007000700147F147F14242A69
:1002A0007F2A12231308646236495620500008073B
:1002B0000300001C2241000041221C002A1C7F1C5C
:1002C0002A08083E0808008070300008080808085E
:1002D000000060600020100804023E5149453E00C5
:1002E000427F400072494949462141494D33181423
:1002F000127F1027454545393C4A49493141211172
:1003000009073649494936464949291E0000140063
:100310000000403400000008142241141414141486
:10032000004122140802015909063E415D594E7CE4
:100330001211127C7F494949363E414141227F4199
:1003400041413E7F494949417F090909013E4141F7
:1003500051737F0808087F00417F41002040413FE2
:10036000017F081422417F404040407F021C027FF1
:100370007F0408107F3E4141413E7F090909063E46
:100380004151215E7F091929462649494932030115
:100390007F01033F4040403F1F2040201F3F403827
:1003A000403F631408146303047804036159494D02
:1003B00043007F4141410204081020004141417F38
:1003C00004020102044040404040000307080020AE
:1003D000545478407F2844443838444444283844AE
:1003E00044287F385454541800087E090218A4A4E5
:1003F0009C787F0804047800447D40002040403D04
:10040000007F1028440000417F40007C047804787D
:100410007C080404783844444438FC182424181810
:10042000242418FC7C08040408485454542404046C
:100430003F44243C4040207C1C2040201C3C403059
:10044000403C44281028444C9090907C4464544C88
:1004500044000836410000007700000041360800E3
:1004600002010204023C2623263C1EA1A161123A8D
:100470004040207A385454555921555579412254D9
:10048000547842215554784020545579400C1E52DE
:100490007212395555555939545454593955545483
:1004A000580000457C410002457D420001457C40EA
:1004B0007D1211127DF0282528F07C54554500202E
:1004C00054547C547C0A097F4932494949323A44A0
:1004D00044443A324A4848303A4141217A3A42400B
:1004E0002078009DA0A07D3D4242423D3D404040DD
:1004F0003D3C24FF2424487E4943662B2FFC2F2BB0
:10050000FF0929F620C0887E090320545479410050
:1005100000447D413048484A32384040227A007ACF
:100520000A0A727D0D19317D2629292F28262929AD
:10053000292630484D4020380808080808080808CF
:10054000382F10C8ACBA2F102834FA00007B0000F6
:1005500008142A142222142A14085500550055AAFA
:1005600055AA55AAFF55FF55FF000000FF001010C7
:1005700010FF00141414FF001010FF00FF1010F003
:1005800010F0141414FC001414F700FF0000FF0016
:10059000FF1414F404FC141417101F10101F101F64
:1005A0001414141F00101010F0000000001F101091
:1005B00010101F10101010F010000000FF1010108D
:1005C000101010101010FF10000000FF140000FFAA
:1005D00000FF00001F10170000FC04F41414171093
:1005E000171414F404F40000FF00F7141414141486
:1005F0001414F700F7141414171410101F101F14FC
:100600001414F4141010F010F000001F101F00005C
:10061000001F14000000FC140000F010F01010FF88
:1006200010FF141414FF141010101F00000000F02D
:1006300010FFFFFFFFFFF0F0F0F0F0FFFFFF000002
:10064000000000FFFF0F0F0F0F0F3844443844FC29
:100650004A4A4A347E02020606027E027E02635540
:100660004941633844443C04407E201E2006027EFB
:10067000020299A5E7A5991C2A492A1C4C7201720D
:100680004C304A4D4D303048784830BC625A463D77
:100690003E494949007E0101017E2A2A2A2A2A442C
:1006A000445F444440514A444040444A5140000061
:1006B000FF0103E080FF000008086B6B083612366C
:1006C0002436060F090F060000181800000010104D
:1006D000003040FF0101001F01011E00191D17120B
:1006E000003C3C3C3C000000000000000A0B0209FA
:1006F0000C0D0E08070304010000000000000000BC
:1007000000000000000000000000000000000000E9
:1007100000000000000012111000000000000000A6
:1007200000000000000000000000000000000000C9
:1007300000002100240027002A002D003000330093
:1007400001010000040107010A010000200023004C
:10075000260029002C002F003200000100000301B8
:100760000601090101021020200808102040102075
:100770004080020102010804020101020408102065
:100780004080804020100804020180040201804063
:1007900020100804020108040201010204081020CC
:1007A0004080010204081020408000002200250043
:1007B00028002B002E00310034000201000005014A
:1007C00008010B01050505050705080808080202D0
:1007D00002020A0A080804040404010101010101DB
:1007E00001010303030303030303040707070C0CBE
:1007F0000C0C0C0C0C0C0202020206060606060685
:1008000006060B0B0B0B0B0B0B0B0E1611241FBE4E
:10081000CFEFD1E2DEBFCDBF00E00CBF14E0A0E01F
:10082000B2E0E0E1F0E400E00BBF02C007900D92FF
:10083000A238B107D9F726E0A2E8B4E001C01D92C2
:10084000AC36B207E1F714E0C6E0D4E000E006C041
:1008500021970109802FFE010E94C01EC530D107DB
:1008600080E00807A9F70E942A170C9406200C9430
:100870000000FC0120812EBD0DB407FEFDCF2EB57A
:10088000FC0120830895AF92BF92CF92DF92EF9246
:10089000FF920F931F93CF93DF936C017B018B012A
:1008A000040F151FEB015E01AE18BF08C017D1077A
:1008B00059F06991D601ED91FC910190F081E02D04
:1008C000C6011995892B79F7C501DF91CF911F9149
:1008D0000F91FF90EF90DF90CF90BF90AF90089571
:1008E000FC01538D448D252F30E0842F90E0821B36
:1008F000930B541710F0CF96089501970895FC01BB
:10090000918D828D981761F0A28DAE0FBF2FB11D12
:100910005D968C91928D9F5F9F73928F90E008956A
:100920008FEF9FEF0895FC01918D828D981731F024
:10093000828DE80FF11D858D90E008958FEF9FEF78
:100940000895FC01918D228D892F90E0805C9F4F4E
:10095000821B91098F73992708958DE095E00E947D
:10096000A10421E0892B09F420E0822F0895FC01E5
:10097000A48DA80FB92FB11DA35ABF4F2C91848D00
:1009800090E001968F739927848FA689B7892C935D
:10099000A089B1898C91837080648C93938D848DB0
:1009A000981306C00288F389E02D80818F7D8083B3
:1009B0000895EF92FF920F931F93CF93DF93EC0173
:1009C00081E0888F9B8D8C8D98131AC0E889F989F6
:1009D000808185FF15C09FB7F894EE89FF896083F9
:1009E000E889F98980818370806480839FBF81E07A
:1009F00090E0DF91CF911F910F91FF90EF900895BC
:100A0000F62E0B8D10E00F5F1F4F0F731127E02E96
:100A10008C8D8E110CC00FB607FCFACFE889F989CE
:100A2000808185FFF5CFCE010E94B704F1CFEB8D19
:100A3000EC0FFD2FF11DE35AFF4FF0829FB7F894A2
:100A40000B8FEA89FB8980818062CFCFCF93DF93C0
:100A5000EC01888D8823B9F0AA89BB89E889F989D6
:100A60008C9185FD03C0808186FD0DC00FB607FC0B
:100A7000F7CF8C9185FFF2CF808185FFEDCFCE013E
:100A80000E94B704E9CFDF91CF91089580E090E014
:100A9000892B29F00E94AD0481110E94000080E0A2
:100AA00090E0892B49F080E090E0892B29F00E94AA
:100AB000000081110E94000080E090E0892B49F045
:100AC00080E090E0892B29F00E94000081110E94B3
:100AD000000080E090E0892B49F080E090E0892BD5
:100AE00029F00E94000081110C94000008958150AB
:100AF000823108F05AC0E82FF0E08827ED57FA4F0E
:100B00008F4F0C94C01EA305A70595059B059F0557
:100B1000D505AA05B005B405BA05BE05C205C805C8
:100B2000CC05D505D005D605DA05809180008F77F4
:100B3000809380000895809180008F7DF9CF80910F
:100B40008000877FF5CF84B58F7784BD089584B505
:100B50008F7DFBCF8091B0008F778093B000089598
:100B60008091B0008F7DF9CF809190008F77809336
:100B700090000895809190008F7DF9CF8091900032
:100B8000877FF5CF8091A0008F778093A000089594
:100B90008091A0008F7DF9CF8091A000877FF5CF55
:100BA000809120018F77809320010895809120010A
:100BB0008F7DF9CF80912001877FF5CFCF93DF9391
:100BC000282F30E0F901E651F94F8491F901EC59F1
:100BD000F84FD491F901EC53F84FC491CC23A1F014
:100BE00081110E947705EC2FF0E0EE0FFF1FE65B0E
:100BF000F84FA591B491EC91ED2381E090E009F4D8
:100C000080E0DF91CF91089580E090E0FACF1F93CC
:100C1000CF93DF93282F30E0F901E651F94F84910B
:100C2000F901EC59F84FD491F901EC53F84FC49104
:100C3000CC23A9F0162F81110E947705EC2FF0E04C
:100C4000EE0FFF1FE655F84FA591B4918FB7F894BA
:100C5000EC91111108C0D095DE23DC938FBFDF919A
:100C6000CF911F910895DE2BF8CFCF93DF9390E0C3
:100C7000FC01EC59F84F24918C53984FFC0184915E
:100C80008823D1F090E0880F991FFC01E05DF84FB8
:100C9000A591B491FC01E655F84FC591D49161112D
:100CA0000EC09FB7F8948C91E22FE0958E238C9321
:100CB0002881E223E8839FBFDF91CF9108958FB70A
:100CC000F894EC91E22BEC938FBFF6CF90917B00E0
:100CD000977F90937B008653806480937C00809103
:100CE0007A00806480937A0080917A0086FDFCCF40
:100CF000809178009091790008958230910538F0C4
:100D0000880F991F880F991F05970197F1F708958C
:100D10009F92AF92BF92CF92DF92EF92FF920F938A
:100D20001F93CF93DF93EC016B018885998511E0C8
:100D3000892B09F010E8F601A0808A2D81239924DF
:100D400093948111912C2C813D814E815F8160E2D1
:100D500071EA87E090E00E94A71B022FB12CE22EDF
:100D6000F12C002319F0C7010E947D068A85877F38
:100D700009F04FC08D858F3F89F09A2D912381E036
:100D800009F480E0891551F0EF85F8898F8999235E
:100D9000D1F19081892B808399249394E989FA89F0
:100DA0008081998D892B8083002319F0C7010E94CF
:100DB0007D068E858F3F39F0EB89FC898081988D87
:100DC000892309F0B12AE989FA899081898D809572
:100DD000892380838E858F3F11F0F601B08288854C
:100DE0009985892B09F044C0110F1111BACFDF91F9
:100DF000CF911F910F91FF90EF90DF90CF90BF9018
:100E0000AF909F9008959081809589238083912C45
:100E1000C5CFE989FA898081998D892B8083002348
:100E200019F0C7010E947D068D858F3F49F0EF853F
:100E3000F8898F899A2D9123B9F09081892B80832D
:100E4000E989FA899081898D8095892380838E85AF
:100E50008F3F09F4BFCFEB89FC898081988D89236E
:100E600009F4B8CFB12AB6CF908180958923E7CF16
:100E70001695BBCFAF92BF92CF92DF92EF92FF92C7
:100E80000F931F93CF93DF931F92CDB7DEB78C01E3
:100E90005B016A01DC018D919C911197892B39F0DE
:100EA0001296ED91FC91908181819CBD8DBDF801E0
:100EB00083858F3F19F060E00E9407067501CA0C18
:100EC000DB1CCE14DF04A9F0D7018D917D0189834D
:100ED000F80180819181892B29F0CE0101960E9431
:100EE0003904EFCFBE016F5F7F4FC8010E948806B3
:100EF000E8CFD8011B968C918F3F19F061E00E94DA
:100F0000070681E00F90DF91CF911F910F91FF9025
:100F1000EF90DF90CF90BF90AF9008953FB7F894D7
:100F20008091F8049091F904A091FA04B091FB0427
:100F300026B5A89B05C02F3F19F00196A11DB11D34
:100F40003FBFBA2FA92F982F8827BC01CD01620F70
:100F5000711D811D911D42E0660F771F881F991F2B
:100F60004A95D1F708958F929F92AF92BF92CF92F8
:100F7000DF92EF92FF924B015C010E948E076B01A2
:100F80007C010E948E076C197D098E099F09683EBD
:100F9000734081059105A8F321E0821A9108A10808
:100FA000B10888EEC80E83E0D81EE11CF11C811444
:100FB0009104A104B10429F7FF90EF90DF90CF9046
:100FC000BF90AF909F908F9008952091AD04260F11
:100FD0003327331F21323105ECF42091D104FC0179
:100FE00090E080E0243069F082E00895A091AD04A3
:100FF0002191AC0143575B4FA40FB52FB11D2C932A
:101000000196861798F38091AD04680F6093AD0444
:1010100080E0089581E0089508958FEF9FEF08958F
:101020008FEF9FEF08958091860490E091958195D0
:1010300091090895CF93DF93CB01EA01642F0E94B9
:10104000E507CE01DF91CF910895CF93DF931F92F3
:10105000CDB7DEB7698361E0CE0101960E94E50756
:1010600081E090E00F90DF91CF9108950895FC0109
:101070006370668B8481958126813781613039F078
:10108000633029F0918780873387228708953187DD
:1010900020879387828708952F923F924F925F9285
:1010A0006F927F928F929F92AF92BF92CF92DF9278
:1010B000EF92FF920F931F93CF93DF93CDB7DEB7DD
:1010C0006A970FB6F894DEBF0FBECDBF9A8F898F97
:1010D0007A8369834A01D22E18870F833701BC2C8B
:1010E000DC0159962D913C915A972115310509F053
:1010F00015C118968D919C911997681779070CF076
:10110000D7C11A968D919C91481759070CF0D0C100
:101110004C2C512CB6E0CB9E600D711D11247C87A8
:101120006B87161617060CF0C3C1EA2DF0E0FA879C
:10113000E98793E0EE0FFF1F9A95E1F7F88BEF87B1
:10114000CF01840F951F181619060CF0B1C1A98D97
:10115000BA8D58968C91811104C0BFEABD1508F470
:10116000D394A98DBA8DED91FC9111970284F385EA
:10117000E02DCD011995B5E0DB9EC0011124E98178
:10118000FA81FC83EB83312C212C9C0126513E4FAC
:10119000388F2F8B4A2D50E05E8B4D8BEF89F88D69
:1011A000E20DF31D44919E828D82D12CC12C698168
:1011B0007A81620D731D7A8B698B842F90E09C8BF2
:1011C0008B8BE98DFA8DA081B18140FF82C0F1E067
:1011D000BF126FC0AF126DC01C96ED91FC912F81B4
:1011E0003885A4014C0D5D1D69897A89898D9A8D98
:1011F0001995EB89FC89F595E7954E2F5FEFC51A98
:10120000D50A6D817E818D899E89680F791F7E83C5
:101210006D8398E0C916D10481F6AFEF2A1A3A0A15
:10122000EB81FC81E40DF51DFC83EB83F5E02F16CB
:10123000310409F0B3CF2F81388526153705B9F071
:10124000A98DBA8DED91FC91B1E0BB1257C0AB12E4
:1012500055C069817A816B5F7F4F0088F189E02DED
:10126000830128E030E0A401898D9A8D1995A98D1C
:10127000BA8DED91FC9111970688F789E02DCD018B
:101280006A960FB6F894DEBF0FBECDBFDF91CF9147
:101290001F910F91FF90EF90DF90CF90BF90AF9094
:1012A0009F908F907F906F905F904F903F902F9086
:1012B00019941E96ED91FC91EF80F88409851A85AA
:1012C00092014D815E816B817C81898D9A8D19950A
:1012D00090CF2F8138852615370509F48ACF31E064
:1012E000B31207C0A31205C01C96ED91FC919301A7
:1012F00078CF1E96ED91FC917301E0CF6B857C85D4
:10130000641975090684F785E02D73010F85188926
:101310009201A401898D9A8D1995A9CFF90134966E
:101320009491329745915491D91AB7E0DB9E400DC4
:10133000511D1124F901259134913C8B2B8BFA011D
:1013400025903490FA013296749031963491398B0D
:10135000329664903196449041E04C1518F04A154D
:1013600008F07FC0662D062C000C770B7C836B8306
:10137000842D042C000C990B9E838D83A98DBA8D2E
:10138000ED91FC9111970284F385E02DCD01199523
:10139000512CD12CC12CEA2DF0E0FA87E9872B2DB6
:1013A00030E03C872B87A401440D511D47FC5A9522
:1013B000588F4F8B69817A81660D711D67FC7A9514
:1013C0007E876D877989C71608F051CF2C2D30E0C4
:1013D0004D815E81420F531FA985BA854A9FC00186
:1013E0004B9F900D5A9F900D1124FC01E80DF91DA3
:1013F000F88BEF87852D612C4F89588D420F531F35
:101400005E8B4D8B671408F050C044244394480E03
:10141000877041F4C1010196EB89FC89E20DF31D4F
:10142000D4901C01D7FE19C0A98DBA8DED91FC9105
:10143000662D70E0B1E0BB1219C0AB1217C02D854C
:101440003E85620F731F0484F585E02D2F8138855A
:101450004D895E89898D9A8D1995DD0C6394842D53
:10146000D1CF1E821D821C821B8288CF4B815C8162
:10147000640F751FAB85BC856A9FC0016B9F900D83
:101480007A9F900D112469817A81680F791F0684F3
:10149000F785E02DEF80F88409851A859D014F8539
:1014A0005889898D9A8D1995D8CF570CC3948ACFB6
:1014B0006A960FB6F894DEBF0FBECDBFDF91CF9115
:1014C0001F910F91FF90EF90DF90CF90BF90AF9062
:1014D0009F908F907F906F905F904F903F902F9054
:1014E00008958F929F92AF92CF92EF92FF920F93B7
:1014F0001F93CF93DF93EC01262F898D9A8D009750
:1015000009F051C06A30D1F41D861C868D8948E0EF
:10151000849F900111248E859F85820F931F9F8742
:101520008E8781E090E0DF91CF911F910F91FF9026
:10153000EF90CF90AF909F908F9008956D3089F38A
:10154000CC88AD888F898823C1F08C859D8536E055
:10155000C39E800D911D1124488559854817590750
:1015600064F44E855F851D861C8638E0A39EC0010D
:101570001124840F951F9F878E87EA88FB8808892E
:1015800019894E855F856C857D85CE010E944C084A
:101590002C898C859D8546E0249F800D911D11240A
:1015A0009D878C87BECF6A3069F41D861C86FC013E
:1015B0003896E4912D898E859F85E29F800D911D3F
:1015C0001124ADCF6D3009F4ACCFFC0134963491C9
:1015D000631708F4A6CF3296E491E61708F4A1CF7A
:1015E000FC01329685909490462F431B342F47E0A0
:1015F000349F800C911C1124F40132963491319661
:10160000E4913323A9F1EE2399F1CC88F4013596C6
:10161000E491AD884F89442301F10E2E000CFF0B9D
:10162000E30FF11DCE9EA001CF9E500D11246C85BD
:101630007D85460F571F68857985641775076CF49B
:101640004E855F851D861C86FC013896E491AE9E12
:10165000400D511D11245F874E87EA88FB88088959
:1016600019894E855F856C857D85CE010E944C0869
:10167000F4013496E4912C898C859D85E29F800D40
:10168000911D11248DCF6F927F928F929F92AF9276
:10169000BF92CF92DF92EF92FF920F931F93CF935F
:1016A000DF93EC016B015A0139014801E881F981AE
:1016B0000284F385E02D1995E881F9810288F38988
:1016C000E02D87019301A501B601CE011995A50171
:1016D000480D591D41505109E881F9810288F3896B
:1016E000E02D9301B601CE011995E881F9810088BA
:1016F000F189E02D9401A501B601CE011995C60C22
:10170000D71CB60161507109E881F9810088F1891F
:10171000E02D9401A501CE011995E881F981068893
:10172000F789E02DCE01DF91CF911F910F91FF90AE
:10173000EF90DF90CF90BF90AF909F908F907F9071
:101740006F9019946F927F928F929F92AF92BF92F7
:10175000CF92DF92EF92FF920F931F93CF93DF937D
:101760005C01EB016A01490138018701DC01ED915F
:10177000FC916217730719F5641675062CF0962D07
:10178000872D3A01C92ED82E9601261937092F5FC9
:101790003F4F048CF58DE02DA301BE01C5011995C5
:1017A000DF91CF911F910F91FF90EF90DF90CF903D
:1017B000BF90AF909F908F907F906F900895461547
:1017C000570591F42617370724F0892D4B01C22FB6
:1017D000D82F9E01281939092F5F3F4F068CF78DAE
:1017E000E02DA601B401DACF0284F385E02D19952E
:1017F000D501ED91FC910488F589E02D83019401D8
:10180000A601BE01C5011995D501ED91FC9106888F
:10181000F789E02DC501DF91CF911F910F91FF90C6
:10182000EF90DF90CF90BF90AF909F908F907F9080
:101830006F901994EF92FF920F931F93DC011A9609
:101840000D911C911B9718962D913C911997ED9134
:10185000FC9100A0F1A1E02D7B0150E040E070E0A0
:1018600060E019951F910F91FF90EF9008954F92AE
:101870005F926F927F928F929F92AF92BF92CF9220
:10188000DF92EF92FF920F931F93CF93DF936C0140
:101890002B015A0139014801DC01ED91FC910284D0
:1018A000F385E02D1995E201640C751CD601ED91CC
:1018B000FC91C615D7055CF40088F189E02D8701FD
:1018C0009401A501BE01C60119952196EFCF0688A6
:1018D000F789E02DC601DF91CF911F910F91FF9005
:1018E000EF90DF90CF90BF90AF909F908F907F90C0
:1018F0006F905F904F9019948F929F92AF92BF928A
:10190000CF92DF92EF92FF920F931F93CF93DF93CB
:10191000EC015B014A016901E881F9810284F385E8
:10192000E02D199595012C0D3D1D21503109E881BF
:10193000F9810488F589E02D78018401A401B501BD
:10194000CE011995E881F9810688F789E02DCE014D
:10195000DF91CF911F910F91FF90EF90DF90CF908B
:10196000BF90AF909F908F9019948F929F92AF925B
:10197000BF92CF92DF92EF92FF920F931F93CF937C
:10198000DF93EC015B014A0169017801E881F9818B
:101990000284F385E02D1995C80CD91C86010150ED
:1019A0001109E881F9810488F589E02D9501A401E8
:1019B000B501CE011995E881F9810688F789E02DF6
:1019C000CE01DF91CF911F910F91FF90EF90DF90AB
:1019D000CF90BF90AF909F908F901994EF92FF920D
:1019E0000F931F93DC01ED91FC9100A0F1A1E02D7C
:1019F00019951F910F91FF90EF9008950F931F93EA
:101A0000DC01ED91FC91068CF78DE02D19951F916D
:101A10000F9108950F931F93DC01ED91FC91048CBD
:101A2000F58DE02D19951F910F910895DC01ED9131
:101A3000FC910084F185E02D19942F923F924F92F2
:101A40005F926F927F928F929F92AF92BF92CF924E
:101A5000DF92EF92FF920F931F93CF93DF9300D00B
:101A600000D0CDB7DEB73C016A013E832D83FC82F6
:101A7000EB825801A41AB50AB7FE03C0B194A19431
:101A8000B1088D809E80861A970A97FE03C09194B4
:101A9000819491088A149B045CF0902F812F0D8112
:101AA0001E819D838E839C2D8D2D6B01692F782F38
:101AB0000C151D055CF09D818E817E836D83692FE1
:101AC000782F902F812F8601C92ED82E1601201A2B
:101AD000310A2B012D813E81421A530A57FE03C061
:101AE000519441945108710137FE03C03FEFE31A4E
:101AF000F30AF594E7948D819E81861797075CF52C
:101B0000A1E0B0E0BA83A983C016D1064CF1D3019D
:101B1000ED91FC910484F585E02D2B813C81A80199
:101B20006D817E818A149B041CF04D815E81B80119
:101B3000C3011995E418F508F7FE0AC02D813E810E
:101B400089819A81280F391F3E832D83E20CF31C73
:101B50000F5F1F4FD9CF2FEF3FEF3A832983D4CFA9
:101B600026960FB6F894DEBF0FBECDBFDF91CF91A2
:101B70001F910F91FF90EF90DF90CF90BF90AF90AB
:101B80009F908F907F906F905F904F903F902F909D
:101B900008950F931F93CF93DF931F92CDB7DEB7B6
:101BA0008C01698360E0FC01868D0E94070641E09C
:101BB00050E0BE016F5F7F4FF801838D948D0E94CE
:101BC0003A070F90DF91CF911F910F910895CF9316
:101BD000C82F87FDCFE7C093600661E281E496E0FD
:101BE0000E94C90D6C2F606881E496E00E94C90DC7
:101BF00060E281E496E0CF910C94C90DCF9380917F
:101C00005E0687FD13C061E00E94350660E08091AA
:101C10005E060E94070661E070E080E090E00E94AE
:101C2000B30761E080915E060E940706C0916106DD
:101C3000C83008F0C7E0C093610661E281E496E035
:101C40000E94C90D6C2F606181E496E00E94C90D6D
:101C500060E281E496E00E94C90D809160060E94D6
:101C6000E70D60E281E496E00E94C90D6CE081E43A
:101C700096E0CF910C94C90DFF920F931F93CF93D1
:101C8000DF9390916206992339F0809163068F5F0C
:101C90008917E8F580936306D0916606D695D695A8
:101CA000D69584E5D89F800111248091670686959A
:101CB000869586958D1780F16D2F606481E496E09E
:101CC0000E94C90DC0916406F09065066C2F606893
:101CD00081E496E00E94C90D61E080915F060E9458
:101CE00007064F2D50E06C2F70E0461B570B4F5FDF
:101CF0005F4F600F711F60507E4F80915C06909126
:101D00005D060E943A07DF5F0C5A1F4FCECF10923C
:101D100063060E94FE0DC0CF60E481E496E00E945D
:101D2000C90D83E580936406109265068FE2809367
:101D3000660610926706DF91CF911F910F91FF9079
:101D400008951F93CF93DF93EC01162F60E20E945A
:101D5000C90D6CE011116DE0CE01DF91CF911F91A3
:101D60000C94C90DFC0177FD55C0808591856817DD
:101D700079070CF04FC057FD4DC0828593854817F9
:101D800059070CF047C08689823009F444C083307B
:101D900009F44EC0813031F48FE290E0861B970B3E
:101DA000BA01AC01842FA62F93A1691708F4962FCE
:101DB00093A394A19A1708F49A2F94A395A1891735
:101DC00008F4982F95A396A1981708F4982F96A336
:101DD000CA0157FD0796E3E095958795EA95E1F7E7
:101DE000A4E5A89FF001A99FF00D1124E60FF71FAD
:101DF000E050FE4FCA0168E070E00E94AC1E41E076
:101E000050E001C0440F8A95EAF78081232BB9F096
:101E1000842B8083089583E590E0DC01A61BB70B3B
:101E2000BD018FE290E0DC01A41BB50BAD01BACF80
:101E300083E590E0841B950BAB01BC01B3CF4095CB
:101E40008423E7CF089590E080E00895CF92DF9259
:101E5000EF92FF92CF93DF93EC01603282E078073C
:101E6000CCF5653B710514F064EB70E0898128E8DE
:101E700030E0281B310987FD3395220F331F220FD5
:101E8000331F6901330FEE08FF088A8128E532E02D
:101E9000281B310987FD3395220F331F220F331F73
:101EA000032E000C440B550B2C193D094E095F09FC
:101EB000DB0177FF02C0B0E0A0E00E949F1B24EB93
:101EC00030E040E050E00E94751BC20ED31EE41EBD
:101ED000F51EB601E881E03370F5298188E890E0CD
:101EE000821B910927FD9395880F991F880F991FD1
:101EF000681779077CF02A8188E592E0821B9109B6
:101F000027FD9395880F991F880F991F68177907E8
:101F10000CF4CB010297880F991F4FB7F8942E2F1E
:101F200030E0F901EE0FFF1FE20FF31FE655FA4F05
:101F3000928381834FBFDF91CF91FF90EF90DF902D
:101F4000CF9008951F93CF93DF93EC01162F8881D4
:101F5000803308F04EC061E0812F0E9435068881F1
:101F6000282F30E0F901EE0FFF1FE20FF31FE655B7
:101F7000FA4F1F736081607C612B608319821A8223
:101F80002CE0622F0E94A01E829FB001112430E03D
:101F900020E0AB01420F531FFA01EE0FFF1FE40FC9
:101FA000F51FE655FA4F908196FD16C02F5F3F4F03
:101FB0002C30310571F7813009F51092800082E0F4
:101FC000809381001092850010928400B19A8091D4
:101FD0006F00826080936F00E8818E2F90E0FC019B
:101FE000EE0FFF1FE80FF91FE655FA4F808180645E
:101FF00080838881DF91CF911F910895823061F4B1
:10200000109290008093910010929500109294008D
:1020100088BB80937100E0CF833069F41092A000F8
:1020200082E08093A1001092A5001092A40089BBC9
:1020300080937200D1CF8111CFCF1092200182E026
:102040008093210110922501109224018ABB809374
:102050007300C2CFAF92BF92CF92DF92EF92FF9206
:102060000F931F93CF93DF936B017A01EC01CE574F
:10207000DB4F28813CE0389F8001399F100D1124EF
:10208000A0903A06B12C27FF1FC0FB0111821082DD
:1020900088818F5F888388819801280F311D87FD93
:1020A0003A95F6012A153B051CF488818C30C4F161
:1020B00080819181049680349C4908F473C0F601B4
:1020C00080819181049670C088819801280F311D0C
:1020D00087FD3A952A153B05DCF68881A801480F53
:1020E000511D87FD5A95FA01EE0FFF1FE40FF51FF2
:1020F000E655FA4F808186FFCBCF8881F801E80F43
:10210000F11D87FDFA95CF01EE0FFF1FE80FF91FB4
:10211000E655FA4F808160E08F730E940706B8CFC2
:10212000808191812881A801420F511D27FD5A9578
:102130009A01FA01EE0FFF1FE20FF31FE655FA4F67
:1021400021813281820F931FF701918380838881DF
:102150009801280F311D87FD3A95F901EE0FFF1FF9
:10216000E20FF31FE655FA4F808186FF22C0888177
:10217000080F111D87FD1A95F801EE0FFF1FE00FE4
:10218000F11FE655FA4F808161E08F73DF91CF91A7
:102190001F910F91FF90EF90DF90CF90BF90AF9085
:1021A0000C94070680E49CE9F701918380838FEF0C
:1021B0008883DF91CF911F910F91FF90EF90DF9077
:1021C000CF90BF90AF900895CF92DF92EF92FF92A1
:1021D000BC01990F880B990B0E94F41C20E030E0A1
:1021E00040EA5BE30E94F91D6B017C01AC019B019D
:1021F00060E070E080EA90E40E94D81B9B01AC0193
:102200006FE175E88BE291E40E944A1CA7019601F8
:102210000E94F91D9B01AC0160E070E08AEF93E43D
:102220000E944A1C0E94BC1C072E000C880B990BB4
:102230000E94F41CFF90EF90DF90CF900895E0E0B3
:10224000F2E088EF91E0DF019C011D9221503040C7
:10225000E1F71092640680916506833508F483E502
:102260008093650610926606809167068F3208F4A7
:102270008FE28093670610924E0610924D061092E0
:10228000500610924F0608950E940120FB01019014
:102290000020E9F73197AF01461B570BDC01ED91A8
:1022A000FC910280F381E02D19948F929F92AF925E
:1022B000BF92EF92FF920F931F93CF93DF93CDB70F
:1022C000DEB7A1970FB6F894DEBF0FBECDBF7C017D
:1022D000FA01CB0119A2223008F42AE08E010F5D29
:1022E0001F4F822E912CB12CA12CBF01A50194016E
:1022F0000E94A71BF901CA016A300CF5605DD80184
:102300006E938D01232B242B252B79F790E080E011
:10231000109721F0BD01C7010E944611A1960FB68A
:10232000F894DEBF0FBECDBFDF91CF911F910F910B
:10233000FF90EF90BF90AF909F908F900895695C51
:10234000DECF8F929F92AF92BF92CF92DF92EF92A9
:10235000FF920F931F93CF93DF93EC016A017B01F0
:10236000AB019601CB01B6010E94661E6CE374E0DE
:10237000811126C046015701E894B7F82FEF3FEFCF
:102380004FE75FE7C501B4010E94661E81110CC0D2
:102390002FEF3FEF4FE75FE7C501B4010E94451CF7
:1023A00060E474E0181664F02FEF3FEF4FE75FE44E
:1023B000C701B6010E94A41D18168CF464E474E0F1
:1023C000CE01DF91CF911F910F91FF90EF90DF90A1
:1023D000CF90BF90AF909F908F900C9446112FEFAD
:1023E0003FEF4FE75FECC701B6010E94451C87FD38
:1023F000E5CF20E030E0A901C701B6010E94451CED
:1024000010E000E087FF0DC0E881F9810190F081C4
:10241000E02D6DE2CE0119958C01F7FAF094F7F8F2
:10242000F0942AE037ED43EA5BE3C701B6010E946E
:10243000D91B4B015C010E94C31C6B017C010E94F3
:10244000F21C9B01AC01C501B4010E94D81B4B01D9
:102450005C012AE0B701A601CE010E945511080FC8
:10246000191FE881F9810190F081E02D6EE2CE0123
:102470001995080F191F20E030E040E251E4C50132
:10248000B4010E94F91D4B015C010E94C31C6B0149
:10249000F12CE12C2AE0B701A601CE010E945511D2
:1024A000080F191FC701B6010E94F21C9B01AC0165
:1024B000C501B4010E94D81B20E030E040E251E4A5
:1024C0000E94F91D0E94C31CAB0170E060E02AE08D
:1024D000CE010E945511800F911FDF91CF911F9166
:1024E0000F91FF90EF90DF90CF90BF90AF909F90B3
:1024F0008F9008950C9446111F93CF93DF9385ED31
:102500008093BC008091890490918A04A0918B04EF
:10251000B0918C040796A11DB11D23E0B695A79537
:10252000979587952A95D1F72091BC0024FD03C08B
:102530001092D10452C04091890450918A04609154
:102540008B0470918C04452B462B472B69F3009725
:10255000A105B10541F025E32A95F1F700000197A7
:10256000A109B109E1CF80918804C1E0C09387043B
:10257000882399F1D091B8001091BA008091BC00E5
:102580008A7B8093BC0060E084E10E94070660E0E3
:1025900085E10E9407061092D104C093D3041092E3
:1025A000D20461E084E10E94070661E085E10E94B7
:1025B00007068091B9008E7F8093B9008091B900A1
:1025C0008D7F8093B90088E48093B80085E4809380
:1025D000BC001093BA00D093B800DF91CF911F9147
:1025E00008950C94671BCF93DF93D0E0C0E060E0C8
:1025F000CE010E94671B2196C11580E1D807B9F76B
:10260000DF91CF910895809107059091080581157C
:10261000904131F410920805109207050C94F312C2
:1026200008958F929F92AF92BF92CF92DF92EF92D6
:10263000FF9286E30E946606BC01990F880B990BF6
:102640000E94F41C9B01AC0160E070EC8FE794E405
:102650000E944A1C20E030E040E85FE30E94D81B63
:1026600020E030E44CE156E40E94F91D0E94B11DC7
:102670006B017C012CE63FEC48E554E30E94F91D18
:10268000A70196010E94F91DA70196010E94F91D5C
:102690004B015C0126ED34E649E759E3C701B60179
:1026A0000E94F91D2BEC38E444E85AE30E94D91B40
:1026B0009B01AC01C501B4010E94D91B9B01AC0177
:1026C00060E070E080E89FE30E944A1C23E333E966
:1026D00048E853E40E94D81BFF90EF90DF90CF9022
:1026E000BF90AF909F908F9008951F920F920FB65A
:1026F0000F9211240BB60F922F933F934F935F933A
:102700006F937F938F939F93AF93BF93EF93FF93B9
:102710008DE095E00E94B704FF91EF91BF91AF91DA
:102720009F918F917F916F915F914F913F912F91E9
:102730000F900BBE0F900FBE0F901F9018951F9219
:102740000F920FB60F9211240BB60F922F938F9307
:102750009F93EF93FF93E0911D05F0911E058081FB
:10276000E0912305F091240582FD1DC090818091A8
:1027700026058F5F8F7320912705821741F0E09126
:102780002605F0E0E35FFA4F958F80932605FF91D1
:10279000EF919F918F912F910F900BBE0F900FBED5
:1027A0000F901F9018958081F2CF1F920F920FB655
:1027B0000F9211242F933F938F939F93AF93BF93C7
:1027C0008091FD049091FE04A091FF04B09100055A
:1027D0003091F70423E0230F2D3758F50196A11D02
:1027E000B11D2093F7048093FD049093FE04A09301
:1027F000FF04B09300058091F8049091F904A09132
:10280000FA04B091FB040196A11DB11D8093F80458
:102810009093F904A093FA04B093FB04BF91AF9195
:102820009F918F913F912F910F900FBE0F901F900E
:10283000189526E8230F0296A11DB11DD2CF1F9235
:102840000F920FB60F9211240BB60F922F933F9356
:102850004F935F936F937F938F939F93AF93BF93A8
:10286000EF93FF938091B900887F803609F44DC0C3
:1028700008F040C0883209F4A7C028F5803109F477
:102880009BC0C8F4882309F4F7C0883009F494C0C9
:10289000FF91EF91BF91AF919F918F917F916F9138
:1028A0005F914F913F912F910F900BBE0F900FBEF4
:1028B0000F901F901895883109F486C0803241F737
:1028C0008093D00414C0803409F49BC040F480335A
:1028D000B9F38833E9F68093D00485ECAEC0803537
:1028E00009F483C0883509F494C0883489F60E94BD
:1028F0007C12CECF883909F48AC038F5883729F0A0
:1029000050F4883611F0803719F683E08093D104B3
:102910001092CF0455C0883809F479C0803919F075
:10292000803809F0B5CF8091CF04803208F06FC0B5
:10293000E091CF0481E08E0F8093CF048091BB00A3
:10294000F0E0E155FB4F80833BC0803B39F0D0F491
:10295000803A09F477C0883A09F09ACF84E08093EE
:10296000D1041092AE041092AD04F0E0E0E01995AD
:102970008091AD0481110FC081E08093AD0410926D
:102980008D0409C0803C09F4A8CF883C09F4A5CF88
:10299000883B09F07DCFE091AE0481E08E0F8093FB
:1029A000AE04F0E0E357FB4F80818093BB00909131
:1029B000AE048091AD0429C08091F6048093BB00E1
:1029C00085EC8093BC0064CF9091F5048091F40471
:1029D000981758F5E091F50481E08E0F8093F50487
:1029E000F0E0EC52FB4F8081E9CFE091F50481E00B
:1029F0008E0F8093F5048091BB00F0E0EC52FB4F0A
:102A000080839091F5048091F4049817C8F285E8CA
:102A1000D8CFE091F50481E08E0F8093F50480918A
:102A2000BB00F0E0EC52FB4F80838091D304811116
:102A30005ECF81E08093D20484EA8093BC00109240
:102A4000D10426CF85EC8093BC001092D1048091F4
:102A5000CF04803230F4E091CF04F0E0E155FB4F39
:102A600010826091CF0470E08FEA94E0F0E0E0E043
:102A700019951092CF040CCF1092D00438CF1F922A
:102A80000F920FB60F9211248F930FB6F894A8955A
:102A900080916000886180936000109260000FBE9A
:102AA0008F910F900FBE0F901F9018951F920F924D
:102AB0000FB60F9211240BB60F922F933F934F93A3
:102AC0005F936F937F938F939F93AF93BF93EF9396
:102AD000FF9348E251E064E271E090E080E00E9400
:102AE0002A10FF91EF91BF91AF919F918F917F91AC
:102AF0006F915F914F913F912F910F900BBE0F906F
:102B00000FBE0F901F9018951F920F920FB60F9245
:102B100011240BB60F922F933F934F935F936F93B4
:102B20007F938F939F93AF93BF93EF93FF9348EA65
:102B300050E064EA70E083E090E00E942A10FF9188
:102B4000EF91BF91AF919F918F917F916F915F9125
:102B50004F913F912F910F900BBE0F900FBE0F9092
:102B60001F9018951F920F920FB60F9211240BB65B
:102B70000F922F933F934F935F936F937F938F9316
:102B80009F93AF93BF93EF93FF9348E950E064E9BD
:102B900070E082E090E00E942A10FF91EF91BF91D7
:102BA000AF919F918F917F916F915F914F913F91E5
:102BB0002F910F900BBE0F900FBE0F901F90189586
:102BC0001F920F920FB60F9211240BB60F922F93F4
:102BD0003F934F935F936F937F938F939F93AF93A5
:102BE000BF93EF93FF9348E850E064E870E081E022
:102BF00090E00E942A10FF91EF91BF91AF919F91B9
:102C00008F917F916F915F914F913F912F910F9095
:102C10000BBE0F900FBE0F901F9018951F93CF9370
:102C2000DF931092100510920F0588EE93E0A0E05C
:102C3000B0E08093110590931205A0931305B09313
:102C4000140582E094E090930E0580930D0585ECC9
:102C500090E090931A058093190584EC90E090938E
:102C60001C0580931B0580EC90E090931E058093DB
:102C70001D0581EC90E09093200580931F0582EC68
:102C800090E0909322058093210586EC90E090934C
:102C90002405809323051092260510922705109293
:102CA000280510922905109244061092430624E547
:102CB00030E0309346062093450680E390E0909301
:102CC00048068093470630934A062093490690931E
:102CD0004C0680934B061092570610924E061092A7
:102CE0004D061092500610924F0681E080935606D2
:102CF000809355062FEF3FEF3093540620935306F1
:102D0000309352062093510680935806109259062C
:102D100010925B0610925A0684E194E0909342066A
:102D2000809341068CE190E00E94DC1EEC0184E07F
:102D30008B8787E08C871FEF1E8785E08D87E8EC07
:102D4000F7E0E491F0E0EE0FFF1FE655F84F8591B4
:102D500094919E8B8D8BE8E6F7E0E491EA8FE9ECA5
:102D6000F7E0E491F0E0EE0FFF1FE655F84F859194
:102D70009491988B8F87E9E6F7E0E491EF8BEBEC89
:102D8000F7E0E491F0E0EE0FFF1FE655F84F859174
:102D900094919A8B898BEBE6F7E0E491E98F80E0E0
:102DA00099E0ADE3B0E08C839D83AE83BF8381E087
:102DB00090E0998788871A861B8E82E090E00E94B7
:102DC000DC1E20E5FC01208311829B838A8319820B
:102DD0001882D0935D06C0935C0686E080935F0600
:102DE00088E080935E0680913A06803360F591E03A
:102DF000980F90933A0680933E0690E0FC01EE0F08
:102E0000FF1FE80FF91FE655FA4F88EB9BE092830E
:102E1000818380913A068033C8F491E0980F9093B3
:102E20003A0680933B0690E0FC01EE0FFF1FE80F8F
:102E3000F91FE655FA4F88EB9BE092838183DF917F
:102E4000CF911F91089510933E06E3CF8FEF8093AB
:102E50003B06F5CF789484B5826084BD84B58160EB
:102E600084BD85B5826085BD85B5816085BD809155
:102E70006E00816080936E001092810080918100CD
:102E800082608093810080918100816080938100C5
:102E9000809180008160809380008091B100846087
:102EA0008093B1008091B00081608093B0008091E8
:102EB0009100826080939100809191008160809365
:102EC0009100809190008160809390008091A1009A
:102ED00082608093A1008091A10081608093A10015
:102EE0008091A00081608093A00080912101826088
:102EF0008093210180912101816080932101809143
:102F0000200181608093200180917A008460809309
:102F10007A0080917A00826080937A0080917A00B2
:102F2000816080937A0080917A00806880937A0033
:102F30001092C100E0911D05F0911E0582E0808392
:102F4000E0911905F0911A051082E0911B05F091AE
:102F50001C058FEC808310922505E0912105F091EE
:102F6000220586E08083E0911F05F0912005808195
:102F700080618083E0911F05F09120058081886049
:102F80008083E0911F05F091200580818068808317
:102F9000E0911F05F091200580818F7D808361E0A5
:102FA00082E00E94350661E083E00E94350660E021
:102FB00086E30E94350660E087E30E94350660E004
:102FC0008AE30E94350660E08DE30E94350660E0EA
:102FD00081E30E94350660E083E30E94350660E0ED
:102FE00085E30E943506C0915C06D0915D068B8515
:102FF0008F3F39F061E00E94350661E08B850E94C9
:10300000070688819981892B09F430C31FB7F8948A
:103010008091FC04811127C0E9EFF7E08491E9E990
:10302000F7E09491E82FF0E0EE0FFF1FE05DF84F1E
:10303000A591B491EC91E92321F461E085E30E942C
:10304000070661E085E30E9435068CB580618CBD82
:103050008CB580648CBD61E084E30E94350661E03C
:1030600083E30E9435068091FC048F5F8093FC040B
:103070001FBF81E08B8F61E080915F060E94350663
:1030800080915E0687FD03C061E00E94350684E002
:103090008093610688E28093600610926206109227
:1030A00063060E94FE0D10926406809165068335CA
:1030B00008F483E5809365061092660680916706A2
:1030C0008F3208F48FE2809367060E943C0E0E94C4
:1030D0001F110E943C0E82E30E94E70D10924E06E3
:1030E00010924D061092500610924F0681E090E02B
:1030F0009093540680935306909352068093510602
:103100000E941F1160E088E30E94350660E089E3B9
:103110000E94350669E070E08EE396E00E94A20FFF
:103120006AE070E08BE396E00E94A20F0E94F31227
:103130002FB7F8948091FD049091FE04A091FF04B4
:10314000B09100052FBF8093090590930A05A093C5
:103150000B05B0930C0583E30E94DE05019709F08F
:10316000A3C268E474E081E496E00E947A120E94AF
:103170001113AB01BC0181E496E00E94A1116EE441
:1031800074E081E496E00E947A1260E574E081E4E4
:1031900096E00E947A1262E574E081E496E00E9473
:1031A0007A128BE30E946606BC01990F880B990B7B
:1031B0000E94F41C24E13EEA43E251E40E944A1CCE
:1031C000AB01BC0181E496E00E94A11160E774E0CC
:1031D00081E496E00E947A1260E574E081E496E072
:1031E0000E947A1267E574E081E496E00E947A1208
:1031F00087E30E9466060E94E410AB01BC0181E4F3
:1032000096E00E94A1116CE574E081E496E00E94D2
:103210007A1260E574E081E496E00E947A1260E63A
:1032200074E081E496E00E947A128AE30E946606C6
:10323000BC01990F880B990B0E94F41C2BEF3AE309
:1032400040EF5CE30E94F91DAB01BC0181E496E014
:103250000E94A11165E674E081E496E00E947A1272
:1032600060E574E081E496E00E947A126AE674E018
:1032700081E496E00E947A128DE30E946606BC010A
:10328000990F880B990B0E94F41C24E13EEA43E25B
:1032900051E40E944A1CAB01BC0181E496E00E940B
:1032A000A1116FE674E081E496E00E947A1260E575
:1032B00074E081E496E00E947A1262E774E081E4AF
:1032C00096E00E947A1281E30E94DE056AE774E0CC
:1032D000019711F06DE774E081E496E00E947A12A4
:1032E00060E574E081E496E00E947A1264EF71E098
:1032F00080E090E00E94B3070E943C0E0E941F11E4
:1033000088E30E946606BC01990F880B990B0E9406
:10331000F41C26E03DE244E35EE30E94F91D0E94B6
:10332000BC1C8EE396E00E94260F89E30E9466068D
:10333000BC01990F880B990B0E94F41C26E03DE21A
:1033400044E35EE30E94F91D0E94BC1C8BE396E0FF
:103350000E94260F8DE30E946606BC01990F880B20
:10336000990B0E94F41C24E13EEA43E251E40E94DE
:103370004A1C20E030E048EC51E40E94451C18163D
:1033800054F061E083E00E94070664EF71E080E0A2
:1033900090E00E94B30760E083E00E94070685E3A7
:1033A0000E94DE05019709F0A9C08091090590915E
:1033B0000A05A0910B05B0910C05409101055091B3
:1033C000020560910305709104058C019D01041BA9
:1033D000150B260B370BB901A801413C5742694038
:1033E000710508F48BC08093010590930205A093AA
:1033F0000305B09304058BE30E946606BC01990F98
:10340000880B990B0E94F41C24E13EEA43E251E44C
:103410000E944A1CAB01BC018DE095E00E94A11105
:1034200060E874E08DE095E00E947A120E9411132A
:10343000AB01BC018DE095E00E94A11160E874E051
:103440008DE095E00E947A1287E30E9466060E9452
:10345000E410AB01BC018DE095E00E94A11160E891
:1034600074E08DE095E00E947A128AE30E9466067D
:10347000BC01990F880B990B0E94F41C2BEF3AE3C7
:1034800040EF5CE30E94F91DAB01BC018DE095E0CB
:103490000E94A11160E874E08DE095E00E947A122C
:1034A0008DE30E946606BC01990F880B990B0E9460
:1034B000F41C24E13EEA43E251E40E944A1CAB01C1
:1034C000BC018DE095E00E94A11160E874E08DE000
:1034D00095E00E947A1281E30E94DE056AE774E0BB
:1034E000019711F06DE774E08DE095E00E947A128B
:1034F00060E874E08DE095E00E947A12C0910505C5
:10350000D0910605C530D1050CF0D6C085E30E94E8
:10351000DE05019709F0CBC061E082E00E9407065A
:1035200068EC70E080E090E00E94B30760E082E029
:103530000E9407062196D0930605C0930505809149
:10354000090590910A05A0910B05B0910C05813EEB
:103550009349A440B10508F486C00E94031381E397
:103560000E94DE05682F80910705909108050E9452
:10357000F112809107059091080501969093080536
:10358000809307050E9403138BE30E946606BC012B
:10359000990F880B990B0E94F41C24E13EEA43E248
:1035A00051E40E944A1C0E94C31C8091070590911F
:1035B00008050E94F1128091070590910805019677
:1035C00090930805809307050E9403130E9411132E
:1035D0000E94C31C80910705909108050E94F1127A
:1035E00080910705909108050196909308058093B6
:1035F00007050E94031387E30E9466060E94E410F9
:103600000E94C31C80910705909108050E94F11249
:103610008091070590910805019690930805809385
:1036200007050E9403138AE30E946606BC01990FF6
:10363000880B990B0E94F41C2BEF3AE340EF5CE3FC
:103640000E94F91D0E94C31C8091070590910805F6
:103650000E94F112809107059091080501969093C0
:103660000805809307050E94460562CD61E08C85C0
:103670000E9435068A858B7F60E009F061E08C85C9
:103680000E9407068D858F3F39F061E00E94350664
:1036900061E08D850E9407068E858F3F09F4E9CC95
:1036A00060E00E943506E5CC0E943C0E29CE60E029
:1036B00082E00E94070643CF68EE73E080E090E06E
:1036C0000E94B307109206051092050538CF262FE9
:1036D000F999FECF1FBA92BD81BD20BD0FB6F894F7
:1036E000FA9AF99A0FBE01960895052E97FB1EF4DB
:1036F00000940E948C1B57FD07D00E94A71B07FC5B
:1037000003D04EF40C948C1B509540953095219528
:103710003F4F4F4F5F4F08959095809570956195FD
:103720007F4F8F4F9F4F08950E94C91BA59F900DFB
:10373000B49F900DA49F800D911D11240895B7FF93
:103740000C94941B0E94941B821B930B0895A1E27E
:103750001A2EAA1BBB1BFD010DC0AA1FBB1FEE1F0B
:10376000FF1FA217B307E407F50720F0A21BB30B56
:10377000E40BF50B661F771F881F991F1A9469F7D2
:1037800060957095809590959B01AC01BD01CF012E
:103790000895A29FB001B39FC001A39F700D811D2A
:1037A0001124911DB29F700D811D1124911D08954A
:1037B0005058BB27AA270E94F01B0C946A1D0E9438
:1037C0005C1D38F00E94631D20F039F49F3F19F40E
:1037D00026F40C94591D0EF4E095E7FB0C94531D50
:1037E000E92F0E947B1D58F3BA17620773078407FD
:1037F000950720F079F4A6F50C949D1D0EF4E09544
:103800000B2EBA2FA02D0B01B90190010C01CA019A
:10381000A0011124FF27591B99F0593F50F4503E45
:1038200068F11A16F040A22F232F342F4427585F37
:10383000F3CF469537952795A795F0405395C9F74F
:103840007EF41F16BA0B620B730B840BBAF0915007
:10385000A1F0FF0FBB1F661F771F881FC2F70EC0A6
:10386000BA0F621F731F841F48F487957795679579
:10387000B795F7959E3F08F0B0CF9395880F08F065
:103880009927EE0F9795879508950E942F1D08F4AC
:1038900081E008950E945E1C0C946A1D0E94631DC5
:1038A00058F00E945C1D40F029F45F3F29F00C9411
:1038B000531D51110C949E1D0C94591D0E947B1D8B
:1038C00068F39923B1F3552391F3951B550BBB274F
:1038D000AA2762177307840738F09F5F5F4F220F94
:1038E000331F441FAA1FA9F335D00E2E3AF0E0E88B
:1038F00032D091505040E695001CCAF72BD0FE2FD5
:1039000029D0660F771F881FBB1F26173707480768
:10391000AB07B0E809F0BB0B802DBF01FF27935820
:103920005F4F3AF09E3F510578F00C94531D0C9474
:103930009E1D5F3FE4F3983ED4F386957795679597
:10394000B795F7959F5FC9F7880F911D9695879555
:1039500097F90895E1E0660F771F881FBB1F621774
:1039600073078407BA0720F0621B730B840BBA0B32
:10397000EE1F88F7E09508950E94C31C6894B1116A
:103980000C949E1D08950E94831D88F09F5798F007
:10399000B92F9927B751B0F0E1F0660F771F881F54
:1039A000991F1AF0BA95C9F714C0B13091F00E946E
:1039B0009D1DB1E008950C949D1D672F782F8827D9
:1039C000B85F39F0B93FCCF3869577956795B39595
:1039D000D9F73EF490958095709561957F4F8F4F04
:1039E0009F4F0895E89409C097FB3EF49095809509
:1039F000709561957F4F8F4F9F4F9923A9F0F92FB5
:103A000096E9BB279395F695879577956795B79532
:103A1000F111F8CFFAF4BB0F11F460FF1BC06F5F18
:103A20007F4F8F4F9F4F16C0882311F096E911C02A
:103A3000772321F09EE8872F762F05C0662371F04B
:103A400096E8862F70E060E02AF09A95660F771F5F
:103A5000881FDAF7880F9695879597F90895990F3B
:103A60000008550FAA0BE0E8FEEF16161706E80748
:103A7000F907C0F012161306E407F50798F0621B69
:103A8000730B840B950B39F40A2661F0232B242B3E
:103A9000252B21F408950A2609F4A140A6958FEF5D
:103AA000811D811D089597F99F6780E870E060E0AF
:103AB00008959FEF80EC089500240A9416161706C7
:103AC00018060906089500240A941216130614060F
:103AD00005060895092E0394000C11F4882352F072
:103AE000BB0F40F4BF2B11F460FF04C06F5F7F4F2A
:103AF0008F4F9F4F089557FD9058440F551F59F011
:103B00005F3F71F04795880F97FB991F61F09F3FCA
:103B100079F087950895121613061406551FF2CFF3
:103B20004695F1DF08C0161617061806991FF1CF43
:103B300086957105610508940895E894BB2766276A
:103B40007727CB0197F908950E942F1D08F48FEF76
:103B5000089516F00C946B1E0C94591D68940C94E7
:103B6000531D0E94831DA8F39923C1F3AEF3DF9385
:103B7000CF931F930F93FF92C92FDD2788232AF03D
:103B80002197660F771F881FDAF720E030E040E8C2
:103B90005FEB9FE3883920F0803E38F021968F77E5
:103BA0000E94D91BE4EEF0E004C00E94D91BE1E1C1
:103BB000F1E00E94791E8B01BE01EC01FB2E6F57D4
:103BC00071097595771F880B990B0E94F41C28E1E9
:103BD00032E741E35FE30E940C1EAF2D9801AE0176
:103BE000FF900F911F91CF91DF910E94F01B0C94D9
:103BF0006A1D0E940C1E0C946A1D0E945C1D38F008
:103C00000E94631D20F0952311F00C94531D0C9419
:103C1000591D11240C949E1D0E947B1D70F3959FCD
:103C2000C1F3950F50E0551F629FF001729FBB27B3
:103C3000F00DB11D639FAA27F00DB11DAA1F649F4F
:103C40006627B00DA11D661F829F2227B00DA11D02
:103C5000621F739FB00DA11D621F839FA00D611D88
:103C6000221F749F3327A00D611D231F849F600DA9
:103C7000211D822F762F6A2F11249F5750409AF0D2
:103C8000F1F088234AF0EE0FFF1FBB1F661F771F5E
:103C9000881F91505040A9F79E3F510580F00C9429
:103CA000531D0C949E1D5F3FE4F3983ED4F386951C
:103CB00077956795B795F795E7959F5FC1F7FE2BC9
:103CC000880F911D9695879597F908950E942F1D4D
:103CD000880B990B08959F3F31F0915020F4879500
:103CE00077956795B795880F911D9695879597F964
:103CF0000895DF93CF931F930F93FF92EF92DF927C
:103D00007B018C01689406C0DA2EEF010E940C1E24
:103D1000FE01E894A5912591359145915591A6F321
:103D2000EF010E94F01BFE019701A801DA9469F7E8
:103D3000DF90EF90FF900F911F91CF91DF91089549
:103D4000991B79E004C0991F961708F0961B881FED
:103D50007A95C9F78095089597FB072E16F400947D
:103D600007D077FD09D00E94C81E07FC05D03EF49D
:103D7000909581959F4F0895709561957F4F089517
:103D8000EE0FFF1F881F8BBF0790F691E02D19944F
:103D9000AA1BBB1B51E107C0AA1FBB1FA617B70771
:103DA00010F0A61BB70B881F991F5A95A9F780958D
:103DB0009095BC01CD0108950F931F93CF93DF938E
:103DC0008230910510F482E090E0E0916A06F09173
:103DD0006B0630E020E0B0E0A0E0309799F42115C8
:103DE000310509F44AC0281B390B24303105D8F5B8
:103DF0008A819B816115710589F1FB01938382831F
:103E0000FE0111C040815181028113814817590779
:103E1000E0F04817590799F4109761F012960C9347
:103E2000129713961C933296CF01DF91CF911F9179
:103E30000F91089500936A0610936B06F4CF211535
:103E4000310551F04217530738F0A901DB019A01FF
:103E5000BD01DF01F801C1CFEF01F9CF90936B06EF
:103E600080936A06CDCFFE01E20FF31F81939193F9
:103E70002250310939832883D7CF209168063091A9
:103E80006906232B41F42091FA033091FB03309310
:103E90006906209368062091F8033091F9032115F3
:103EA000310541F42DB73EB74091FC035091FD031D
:103EB000241B350BE0916806F0916906E217F307C1
:103EC000A0F42E1B3F0B2817390778F0AC014E5F8A
:103ED0005F4F2417350748F04E0F5F1F5093690658
:103EE00040936806819391939FCFF0E0E0E09CCFF0
:103EF000CF93DF930097E9F0FC013297138212828F
:103F0000A0916A06B0916B06ED0130E020E01097B9
:103F1000A1F420813181820F931F20916806309196
:103F200069062817390709F061C0F0936906E09324
:103F30006806DF91CF910895EA01CE17DF07E8F513
:103F40004A815B819E0141155105B1F7E901FB836F
:103F5000EA8349915991C40FD51FEC17FD0761F40D
:103F6000808191810296840F951FE901998388834E
:103F7000828193819B838A83F0E0E0E012968D91A9
:103F80009C9113970097B9F52D913C911197CD0114
:103F90000296820F931F20916806309169062817B8
:103FA000390739F6309751F510926B0610926A0670
:103FB000B0936906A0936806BCCFD383C2834081C7
:103FC0005181840F951FC817D90761F44E5F5F4F69
:103FD00088819981480F591F518340838A819B8131
:103FE000938382832115310509F0B0CFF0936B06DE
:103FF000E0936A069ECFFD01DC01C0CF13821282DE
:10400000D7CF81E090E0F8940C940620F894FFCF8D
:1040100000000000000000000000000000000000A0
:104020000000000000000000000000000000000090
:10403000000000000000C0E0F0F8FCFCFEFFFCE027
:104040000000000000000000000000000000000070
:104050000000000000000000000000000000000060
:104060000000000000000000000000000000000050
:104070000000000000F8F8F8F8F8F8F8F8F8F8F898
:10408000F8F0F0E0E0C080C0FCFFFFFFFF7F3F7F63
:10409000FFFFFFFFFF000000000000000000000025
:1040A0000000000000000000000000000000000010
:1040B0000000000000000000000000000000000000
:1040C000000000000000000000000F1F3F7FFFFF06
:1040D000FFFFFFFFFFFFE7C7C7878F9F9FFFFFFF20
:1040E000C1C0E0FCFFFFFFFFFFFCFCFCFCFEFEFE8E
:1040F000FCFCF8F8F0E0C0C0000000000000000088
:1041000000000000000000000000000000000000AF
:10411000000000000000000000000000000000009F
:104120000080C0E0F1FBFFFFFFFFFF7F1F0F0F8745
:10413000E7FFFFFF1F1F3FF9F8F8F8F8F8F8FDFF59
:10414000FFFFFFFFFFFFFFFF7F3F0F0701000000A2
:10415000000000000000000000000000000000005F
:10416000000000000000000000000000000000004F
:10417000000000F0FEFFFFFFFFFFFFFFFFFFFFFE5D
:104180007E3F3F0F1FFFFFFFFCF0E0F1FFFFFFFF4F
:10419000FFFCF0010101010101010100000000002C
:1041A000000000000000000000000000000000000F
:1041B00000000000000000000000000000000000FF
:1041C00000000000000000030303030303030301D6
:1041D00001010100000000000000030F1F3F7F7F6E
:1041E000FFFFFFFF7F7F1F030000000000000000B3
:1041F00000000000000000000000000000000000BF
:10420000000000000000000000006C0680000000BC
:104210000000D904430470042605A1047F0493041C
:1042200000000000710A4304230F220FB20E0C0895
:10423000160DEE0C0A0DFE0C1D0D0C083708A10E14
:10424000B50C7C0C370C1A0CA20B430B6E616E0084
:10425000696E66006F76660054656D703A004300C3
:104260000A0048756D3A00495F4C3A00206C7800AE
:10427000565F563A00206D2F73004E5F423A002081
:1042800025004C6C757669613A004E4F0053490029
:024290002C0000
:00000001FF
